:020000040007F3
:10F0000004010808110001004B894C7E2332AFEE49
:10F01000D9E58826A69C3156B7F4B27404CC19FD04
:10F02000864CB69018E33EABB02DE08AAEBC538060
:10F03000EEBF62E8D8A1B49D19D6DBA452812E8E12
:10F04000E14F84091545220303001200006002000D
:10F050000010050003001000001000000060020016
:10F06000030011000080070000600000050002009E
:10F07000B70001013B000000010001000000FFFF9C
:0CF0800002000400FFFFFFFFFFFFFF7F06
:00000001FF
