:020000022000DC
:1060000000F000206D630200556302005763020038
:10601000596302005B6302005D6302000000000040
:106020000000000000000000000000005F630200AC
:106030006163020000000000636302006563020008
:10604000676302006763020067630200C1650300C3
:106050006763020067630200676302006763020010
:1060600067630200676302009937030067630200F9
:1060700067630200676302006763020067630200F0
:1060800067630200BDAD030061A9020067630200FF
:106090008DAE030067630200915B0300676302003B
:1060A00067630200676302006763020067630200C0
:1060B0006763020067630200000000000000000048
:1060C00067630200676302006763020067630200A0
:1060D000676302006763020067630200000000005C
:1060E00000000000000000000000000000000000B0
:1060F00000000000000000000000000000000000A0
:10610000000000000000000000000000000000008F
:10611000000000000000000000000000000000007F
:10612000000000000000000000000000000000006F
:10613000000000000000000000000000000000005F
:10614000000000000000000000000000000000004F
:10615000000000000000000000000000000000003F
:10616000000000000000000000000000000000002F
:10617000000000000000000000000000000000001F
:10618000000000000000000000000000000000000F
:1061900000000000000000000000000000000000FF
:1061A00000000000000000000000000000000000EF
:1061B00000000000000000000000000000000000DF
:1061C00000000000000000000000000000000000CF
:1061D00000000000000000000000000000000000BF
:1061E00000000000000000000000000000000000AF
:1061F000000000000000000000000000000000009F
:10620000344935480A1A02D0072291438D46334952
:1062100033480A1A06D00722914381F309880222E3
:1062200082F314882F483049304A00F042F8304851
:106230003049314A00F03DF830483149314A00F0E8
:1062400038F831483149324A00F033F831483249A0
:10625000324A00F02EF832483249334A00F029F829
:1062600032483349334A00F024F833483349002296
:1062700000F02AF832483349002200F025F832486D
:106280003249091A082902DB0022026041601F48D6
:106290001F49884205D00268043003B4904703BC0C
:1062A000F7E700208646EC4600200021284A904768
:1062B000FEE7884207D0521A05D0037801300B70F0
:1062C0000131013AF9D17047884202D002700130A1
:1062D000FAE7704700F0002000E8002000F00020FE
:1062E00000F00020F8E80300A02D0020A02E0020E0
:1062F000A4630200A4630200CACF0300F8E803000D
:10630000A02D0020A02D0020C0D00300C0D003008D
:10631000C0D00300C0D00300C0D00300C0D0030031
:10632000C0D00300C0D00300F6E80300F8E9030082
:10633000A02E0020A02E0020A02E0020E45500203A
:10634000E4550020E4550020E4550020E4590020E5
:106350006D650200FEE7FEE7FEE7FEE7FEE7FEE70B
:10636000FEE7FEE7FEE7FEE7704700BF094880470B
:1063700009484FF007018843854608488047084888
:10638000016841F470010160BFF34F8FBFF36F8F5D
:10639000FFF736BF6963020000F00020915D030043
:0463A00088ED00E0A4
:1063A40041DF704703781C2B07B518D10D4B1B68D0
:1063B4005B040DD50C4B1B68032B09DD0B4B0C4AFE
:1063C400D3F804350B4900920420942205F0F2F925
:1063D40000F072FA03B05DF804EB08F017B803B0EC
:1063E4005DF804FB042E0020002E00200010014064
:1063F40003D10300FCD0030000F068BA0B4B1B6808
:106404005B0407B50DD50A4B1B68032B09DD094B4B
:10641400094AD3F80435094900920420E72205F01B
:10642400C9F903B05DF804EB00F047BA042E00206C
:10643400002E002000100140A3D10300FCD0030073
:106444007FB50378093B0446042B58D8DFE803F0F2
:106454006C6F720303000079022804F1050550D023
:10646400042857D1B4F81320B4F809309A424FD114
:10647400D4F80F20D4F805309A4249D1D4F8153015
:10648400D4F80B2093422CBF00230123002B41D0CE
:1064940003A902A807F0CAFF18B12A4A61210FF024
:1064A400B0FD294A029B294E1344294A5B089342B2
:1064B40024BF03F6FF731E40264B1B683CBF02F645
:1064C400FF7216405B040ED5234B1B68032B0ADDB9
:1064D400224B234AD3F804352249009201967222B2
:1064E400042005F067F932462946207908F092FD28
:1064F40018B1144A76210FF084FD00F0E1F904B0DC
:1065040070BDE27B63799A4202D1237CA279B9E718
:106514000023BBE7294608F0C9FD0028EFD0094A4B
:106524007C210FF06EFDEAE700F0C8F9E7E700F020
:10653400C6F9E4E7007908F0EDFD0028DFD0014A50
:106544008921EEE7D8D003000060020000F0FFFFCD
:10655400F8E90300042E0020002E00200010014062
:1065640078D10300FCD0030000B58DB014F0DEFD3B
:1065740018B14D4ACD210FF044FD4C4E4C4A042134
:106584004CF2870005F0FAF8336859040DD5494BED
:106594001B68032B09DD484B484AD3F804354849A6
:1065A40000920420D12205F005F900F045F900F02D
:1065B40029FA0021242203A816F07EFC01238DF879
:1065C4000C3007238DF80F3006238DF814303D4925
:1065D4003D4B079303A807F0E3FE18B1324AAA2102
:1065E4000FF00FFD39483A4B036003F039F9394A8B
:1065F4003948012114F0F4FD08B10FF0F5FC3368BB
:106604005A040DD52B4B1B68032B09DD2A4B334A47
:10661400D3F804352A4900920420DD2205F0CAF893
:10662400284B1B78002B3BD12D4D0FCD03AC0FC451
:1066340095E8030084E8030003A800F0C1F818B14A
:10664400194AF9210FF0DDFC00F036F900F000FBE7
:1066540000F066F907F02BFE20B1134A40F207114F
:106664000FF0CFFC002241F69A111E4814F0CAFD27
:1066740008B10FF0B9FC33685B040ED50D4B1B68F1
:10668400032B0ADD0C4B184AD3F804350C4900924D
:10669400042040F20B1205F08DF8FFF781FEFCE7B1
:1066A40000F00BF9D2E700BFD8D00300042E00207D
:1066B40055B70200002E00200010014020D1030035
:1066C400FCD00300A02E0020A9630200A42E002009
:1066D40045640200FD6302001CD1030048D103009D
:1066E400C0D00300B02E002062D1030010B50749CA
:1066F400074810F0EBFB024638B906490648096919
:106704000123BDE8104010F0FABB10BDEC2E0020B0
:1067140008320020D42E0020D43000200378023B1D
:1067240010B5082B2CD8DFE803F01B05102B2B2CFD
:106734002B2B38001E4B5B6813B3007A00B31D4A41
:106744000121BDE8104011701847194B9B68BBB17B
:10675400184A1178A1B100211170BDE81040184702
:10676400154B1A78124B42B9DB6813B111490A7000
:106774009847BDE81040FFF7B9BF1B68002BECD168
:1067840010BD0B4B0D485969102210F0FDFB002879
:10679400F6D0BDE810400FF027BCD0E9021007F096
:1067A40089FD08B10FF020FC034B01221A70E7E7C2
:1067B400D42E0020D02E0020D12E0020D430002052
:1067C40070B5164A164E5168044686B0106803AB7D
:1067D40003C31189927A19809A700FCC35460FC57C
:1067E40094E8030085E803007369A3B10D4B00939B
:1067F4000D4A0E490E4803AB10F034FB48B90D485E
:1068040011F08AFB01460A4810F04CFB08B9FFF767
:106814006DFF06B070BD0720FBE700BFE2D10300A7
:10682400D42E002021670200EC2E00200832002024
:10683400D43000200C2F00207FB5194B019301A800
:1068440015F0CCFE08B10FF0CFFB164B04933E229B
:106854001A70154A5A60154A9A60154A0292102312
:1068640040F20242002102A8ADF80C208DF8143049
:1068740015F010F808B10FF0B7FB002014F0CAFFB0
:1068840018B10C4A7A210FF0BCFB012014F0C2FFAE
:1068940018B1084A7B210FF0B4FB07B05DF804FB84
:1068A40048D20300A432002038D2030054D203009B
:1068B40028D20300EDD1030070477047704770473A
:1068C400014B03221A7070474932002070B5124DF3
:1068D400124C2E782378B34288B01BD014220021A6
:1068E40001A816F0E9FAFF238DF80C304FF4FA737F
:1068F40002932823049305238DF8143001A94FF43F
:10690400C8730120CDE906338DF8046014F0A2FFAA
:106914002B78237008B070BD493200204832002023
:10692400F0B50446CFB038B12B4D2B685A0403D5CB
:106934002A4E3368032B01DC4FB0F0BD284B1F688F
:106944000DAB411E00F10F0C184611F8012F4FEA50
:10695400121E02F00F0217F80EE083F800E0BA5C92
:106964005A708C4503F10203EFD100231D4F80F8C8
:1069740020301D4AD7F8043501921C4A0290009237
:106984001B494122042004F015FF2B685B04D3D576
:106994003368032BD0DDE27BD7F804350B92A27B5E
:1069A4000A92627B0992227B0892E27A0792A27A87
:1069B4000692627A0592227A0492E2880392A2886D
:1069C4000292226801920B4A00920949462204204D
:1069D40004F0F0FEB0E700BF042E0020002E0020DB
:1069E400082E002000100140B0D20300C2D20300E0
:1069F4009FD20300CAD2030060DF704769DF70478B
:106A040002F030BF10B588B00FF06EF808B10FF087
:106A1400EBFA1E4B03930024039A049205A9012068
:106A2400CDE905440794FFF7E9FF08B10FF0DCFA5C
:106A3400F823049A059305A9A120CDE90644FFF79C
:106A4400DDFF08B10FF0D0FA04A8FFF7D5FF049AD0
:106A5400039B9A42044612D00D4B1B685B040ED56F
:106A64000C4B1B68012B0ADD0B4B0C49D3F8043586
:106A740001920B4A00920220A52204F09BFE14B15D
:106A840020460FF0B1FA08B010BD00BFA02D0020C1
:106A9400042E0020002E00200010014035D30300F6
:106AA4004ED303000620704730B5444B41F2010534
:106AB4001B68A84287B0044603F4804353D013D81C
:106AC40001282ED0002B3CD03D4B1B68002B38DD19
:106AD4003C4B3D4AD3F80435019100923B497B225B
:106AE400012004F067FE2CE044F2010084424BD004
:106AF40044F202008442E5D11BB3314B1B68002BE6
:106B04001FDD304B1088D3F8043503905268CDE96B
:106B140001122F4A00922D496C22012004F04AFEF2
:106B24000FE073B1264B1B68002B0ADD254BD3F80D
:106B34000435CDE90112274A24490092602204F069
:106B440039FE4FF0A0430022C3F81825C3F80C25E2
:106B5400EFF3108372B64DF6AD6C1F4A1378002B19
:106B64002AD107B030BD002BEBD0154B1B68002B8E
:106B7400E7DD144BD3F80435CDE90112174A00922E
:106B8400124963220120DAE7002BDAD00C4B1B6890
:106B9400002BD6DD0B4B1068D3F8043504905068F5
:106BA400CDE90210926801920D4A009207497722BA
:106BB400012004F0FFFDC4E730BFCFE7042E00201E
:106BC400002E0020001001403FD40300B2D3030084
:106BD400FFD30300C3D30300B02D0020DDD3030093
:106BE4001ED4030007B50023ADF800300146054B61
:106BF40001936A4644F20200FFF756FF03B05DF8C2
:106C040004FB00BFB2DC0300044B00F1100250F897
:106C1400041B43F8041B9042F9D17047B0320020A2
:106C2400094A0A4B03CA596018603C3203CADA792C
:106C3400D960042161F307129860DA711A7A02218B
:106C440061F387121A72704760000010B03200209E
:106C540000487047B0320020002206491346013232
:106C6400202A4B804B6001F8083BF8D1024A13609C
:106C7400704700BFC0320020C03300200C4BF0B579
:106C84001B680C4C064620227BB1013B14F83300F0
:106C940050B104EBC3056F88B74202D16D688D42D1
:106CA40002D0013AF0D11046F0BD1F23EEE700BF39
:106CB400C0330020C0320020084A30B51368084CA5
:106CC40004EBC3056960012104F833100B44202B45
:106CD40008BF00236880136030BD00BFC0330020AC
:106CE400C0320020C0F30C038B42084438BFA0F527
:106CF4000050C01A704700000D4B0E4AF0B51E68D4
:106D040000218E4212D0156800230AE052F8044C88
:106D140004EBC30714F83340844201D17868F0BD12
:106D240001339D42F2D101310832EAE70020F6E74F
:106D3400C4330020CC33002000B58DB040B99A1C78
:106D440006D0012201A88DF80420029301F07AF9FB
:106D5400034B186803F02AFD0DB05DF804FB00BF77
:106D6400D0330020037810B5044613B97846FFF7F2
:106D740039FFE188A069FFF7B5FFE1690A060B0A4C
:106D8400101843F1000110BD037810B5044613B97F
:106D94007846FFF727FF607A431C012098400138AA
:106DA40010BD0000F8B5037806460D4613B97846C1
:106DB400FFF718FF0F4AB18A002314461801875AB7
:106DC4008F4213D1002313520B4A1368581C03F04B
:106DD40007031B011060E15205B175781C4430466D
:106DE400A570FFF7BFFFC4E90201F8BD0133082B0A
:106DF400E4D1E9E7D8330020583400202DE9F041EC
:106E04000E468EB015461C46074610B97846FFF765
:106E1400E9FE16B97846FFF7E5FE636AA278023305
:106E24000593E378A2F10800002B14BF012102218D
:106E34000DF1040842424241434604F10C0003F0C0
:106E4400FEFDA3788DF83430237BADF82050022B5F
:106E540016FA85F5CDE906870B960C950FD12369B3
:106E640013B97846FFF7BEFE23690993102305A8DA
:106E7400ADF8283003F0DFFD0EB0BDE8F08100234B
:106E8400F5E70000B2F5C07F2DE9F84F8346894647
:106E9400904602D97846FFF7A5FE284B00269A466D
:106EA40093F848705FB94046702407F0EEF904FB8C
:106EB40006A4E06648B900242046BDE8F88F0136F0
:106EC400042E03F17003EBD1F5E7DC46BCE80F00B8
:106ED40025460FC5BCE80F000FC59CE80F00B9F1AB
:106EE400010F85E80F00E764A4F84A801BD1144B16
:106EF400A4F852701B7D84F8513084F85070DBF88C
:106F0400283063656FF00103A3620E4BA4F8587038
:106F1400A3632464012002F069F8702303FB06A62E
:106F240086F84890C8E76FF00103A362064BA36597
:106F340084F868702466054BEAE700BF74340020C7
:106F44005C340020A17502008D7A0200997502005C
:106F540010B50446C06E07F09AF904F1300002F04F
:106F6400ADFE94F84830022B03D104F1500002F036
:106F7400A5FE20467022002115F09EFF002084F813
:106F84004800BDE8104002F031B810B590F8483020
:106F9400012B8CB0044602D07846FFF723FE012370
:106FA4008DF8043001A8636D029301F04BF820467C
:106FB400FFF7CEFF0CB010BD10B50446808A02F076
:106FC400D1FA01281CD1237BD3B194F91620002ACD
:106FD40018DBE27D5AB1022B12D094F90330002B56
:106FE40010DBA378002B0CBF0020072010BDE27833
:106FF4000AB9012B06D1237833B9A378042BF2E71D
:107004001020F3E70720F1E70020EFE71FB5002287
:107014000B468DF80F20E0B10230086018460DF1E0
:107024000F0103F00AFD9DF80F3093B10B4B1B6861
:107034005B070ED50A4B1B68032B0ADD094B0A4A72
:10704400D3F8043509490092042040F2374204F091
:10705400B1FB9DF80F0005B05DF804FB042E002081
:10706400002E002000100140D3D40300C7D4030035
:1070740070B5D0E906128CB00446808A05F004FB92
:107084000546A0B12C22002101A8A68AE46915F0C6
:1070940013FF0F238DF804304FF0000364F3000353
:1070A40001A8ADF808608DF80A3000F0CBFF28463F
:1070B4000CB070BD2DE9F04F99461378D2F81880C2
:1070C400F3B007468A46144623B1D1884046FFF7F9
:1070D40009FE9061E378A278002BA2F1080003ADC9
:1070E40014BF0121022104F10C0642422B46424105
:1070F400304603F0A4FCA278C4F81880CDE9085700
:107104001FFA8AF5AB1A9BB21F44ADF82830E37816
:107114000E974FF0000812AF0D978DF83C20ADF894
:107124003080002B5BD04FF0100B04F1240A237B3A
:10713400C4F82480022B02BF2369ADF830B00B934E
:10714400206A217952460BF097FD606AE0B9237BEF
:10715400022B05D13146E0890BF050FE0028E6D120
:107164002E4B1B685B0737D52D4B1B68052B33DD76
:107174002C4B2D4AD3F804352C490092062040F2BA
:107184000E7204F017FB27E007A9FFF73FFF002862
:10719400D6D02046FFF76CFFF0B9A2780B908DF89B
:1071A4001C0096E80300A38AADF82A30AD1A0CAB94
:1071B40001228DF8282083E80300A37D8DF8403058
:1071C400236A0E9307A8636A0897ADF824500F93B7
:1071D400CDF8449000F036FF73B0BDE8F08F227B09
:1071E400012ABDD1A046E089B4F814A048F8243F90
:1071F40041460BF083FD07A9606AFFF707FF0028EB
:10720400C7D16062414650460BF078FD07A9606A19
:10721400FFF7FCFE0028A3D0BBE700BF042E00202C
:10722400002E00200010014079D50300C7D40300CC
:10723400C37D0A7830B56BB3C37822F07F0203F0C4
:107244007F031A430A700B78027803F07F0343EA42
:10725400C2130B700378E3B18378083B5A425A4156
:107264004B7803F07F0343EAC2134B70C58823F0C5
:107274007F03C5F3861423434B70047AC4F3C1021D
:1072840042EA85028A70437A03F01F0343EA4413F7
:10729400CB7030BDC47822F0400343EA8413DBB2E0
:1072A4000B70027923F03F0302F03F0213430B708B
:1072B400C9E72DE9F04F044689B00F4609B1002310
:1072C4000B6004F10C0394F8505001934FF0010843
:1072D4004FF0000B627AAA4203D2002009B0BDE845
:1072E400F08FE16C08FA05F30B4259D1E37D257266
:1072F400002B0CBF0C260826954206FB05FA2378C2
:1073040008BFB4F84A608DF818B008BFA6EB0A06A7
:10731400002B14BF4FF004094FF0010906EB0903D9
:107324000493019B0293A36A039302A8E36A05935F
:1073340003F021FD0028D1D1079B994445B994F865
:1073440053302BB9A36984F85380C3F30C03E3804F
:10735400E37D8BB994F8523073B915B17846FFF7D1
:1073640041FCB4F84A10A2788A1AE16E2346084612
:10737400FFF744FD84F8528007992046FFF758FF31
:10738400E16E32465144484615F06DFD02A803F003
:1073940013FD17B13B6801333B606B1C84F850301C
:1073A4000135EDB296E7000038B590F84830012B6E
:1073B400044602D07846FFF715FC02F0BFFC237B9D
:1073C400074A012B05BFD2E90315A37DD16805FB4C
:1073D4000311014404F13000BDE8384002F085BCDB
:1073E4005C340020F0B5C37D16468278002B32440D
:1073F40014BF4FF480734FF4C0739342C7B00F4669
:107404006BD3394B002493F84810012907D19D8A86
:10741400818A8D4203D1DD89C1898D425FD00134D7
:10742400042C03F17003EED10121FFF72BFD054677
:1074340000283BD032463946C06E15F014FD0023B7
:1074440004A928460493FFF734FF30F004040646E9
:107454003ED1049B13B12846FFF7A6FF234B1B68BC
:1074640013F004033DD0224B1B68032B1EDDB5F83B
:107474004A00204B802805AA1F6828BF80200023CB
:107484001646834202F1020213D1002206F81320A9
:10749400194B1A4AD3F804350192194A00920296FC
:1074A40040F271521749042004F084F9204647B091
:1074B400F0BDE96EC95C4FEA111C01F00F0117F829
:1074C4000CC002F802CC795C02F8011C0133D8E745
:1074D4002846FFF73DFD3446E8E70924E6E708249B
:1074E400E4E71C46E2E700BF74340020042E0020C9
:1074F400002E0020082E0020001001408BD4030031
:10750400C2D20300C7D4030070B50D4690B0044640
:1075140010B97846FFF766FB94F84830022B03D184
:1075240000212046FFF73EFC2C22002105A8666DB1
:1075340015F0C2FC102305A88DF8143006968DF8BA
:107544001C5000F07FFD2046FFF702FD0C4B1B682A
:107554005B0712D50B4B1B68032B0EDD0A4B0B4943
:10756400D3F80435029594F848200192084A009211
:10757400042040F22E2204F01DF910B070BD00BFAB
:10758400042E0020002E002000100140C7D4030068
:1075940068D4030008460021FFF7B6BF91F84830CD
:1075A400012B10B50C4602D07846FFF71BFB94F86C
:1075B40051305BB1013B84F85130002384F85030E2
:1075C400084BBDE81040186803F0F0B8217B01298E
:1075D400204603D1BDE81040FFF796BFBDE8104038
:1075E400FFF7D3BCD03300202DE9F04106468EB01E
:1075F40010460F4615469846FFF73AFD002853D12A
:10760400EC78002C40F08180062F4DD137787378C8
:10761400BA0102F4FE5242EA93024C4B1C4693F820
:107624004810012928D1B3F814C0E9898C4523D125
:10763400D988914220D1B3F858C0A98ABCF1000F6F
:1076440001D08C4518D117F0800FD6F802204FF0E6
:1076540070032CD003FB0043A3F8581013BA702214
:1076640002FB0044E56C1D43E564002B3AD1032181
:107674002046FFF749FF17E00130042803F17003A7
:10768400CDD1334B1B685B070ED5324B1B68012BE6
:107694000ADD314B314AD3F80435314900920220D6
:1076A40040F2846204F086F80EB0BDE8F08103FB7A
:1076B4000043DD898D42D1D0254B1B685A07F3D591
:1076C400244B1B68012BEFDD234B264AD3F80435EA
:1076D4000092CDE9015140F28C622149022004F06C
:1076E40069F8E1E72046FFF74FFB854203D12046C6
:1076F400FFF74BFCD8E7002184F850102046FFF731
:10770400D8FD2046FFF750FECEE72046FFF7F4FAF7
:1077140003460028C8D005F10C012A6A0B9203C95C
:10772400AA8AADF8222009AA82E80300AA7D8DF86E
:1077340030202A788DF82020EA6A8DF81440CDE9AB
:1077440006670D92414605A89847ADE774340020BA
:10775400042E0020002E002000100140E6D4030077
:10776400C7D4030014D503002DE9F0418378904673
:107774001344C27D002A14BF0B220F22934286B009
:1077840004460F462FD8024612F80C1B009200291B
:1077940014BF042501252B440293836A0193C36A11
:1077A4000393684600238DF8103003F0E4FA06468C
:1077B40070B9059920460D44FFF73AFDE37D5BB1AE
:1077C40042463946284615F04EFB684603F0F4FA63
:1077D400304606B0BDE8F081234642462946384685
:1077E400FFF70CFBF1E70926F2E7000010B54FF4B0
:1077F400E0720021134815F05FFB002404F0B4FF8D
:10780400114B12481C602146802215F055FB104B89
:107814001049114A11489C75C3E9001210494CF2F1
:107824005032C3E902211A6140F604029A8202F03E
:107834009FFF0C4B18600C4B0C481C60BDE81040BB
:1078440005F076B87434002058340020D833002072
:107854005C34002080969800F0490200857F020085
:1078640020A10700D0330020C43300203D6D020066
:1078740004F002BF30B504468DB000286BD0036914
:10788400002B68D0C369002B65D08569002D62D0B8
:107894005A788DF804201A780993838A82F00102B9
:1078A4000B2B8DF80320027B09D90121022A8DF8C4
:1078B400001001D1294A927D5AB904220AE0C17A02
:1078C4000029F2D1012A0CBF012200228DF80020E8
:1078D4003AD1082213448DF802200B330C22B3FB57
:1078E400F2F3013B8DF8093000238DF8083094E859
:1078F400030000238DF8173003AB83E803002389CA
:10790400ADF81430A37A8DF81630236A0A93204612
:10791400DF2308950B930BF01FFB28B12378012B71
:1079240014BFFF2320230B9368462569A48AFFF71D
:1079340043FB38B99DF800302246294668463BB1DE
:10794400FFF750FD0DB030BD04238DF80230CEE7B3
:10795400FFF70AFFF6E70E20F4E700BF5C340020CF
:10796400F0B503468DB00F46002843D04568002D7E
:1079740040D08669002E3DD0846802788DF80320BB
:107984000B2C4FF00002099294BF027B012202F0FB
:10799400010100208DF800108DF8020032B1E11DC4
:1079A400C90801398DF809108DF8080003F1100198
:1079B40003C901228DF8172003AA82E80300DA899B
:1079C400ADF814201A7F1B6A089668468DF81620B5
:1079D400CDE90A73FFF7F0FA38B99DF80030224672
:1079E400294668461BB1FFF7FDFC0DB0F0BDFFF75B
:1079F400BBFEFAE70E20F8E730B5047B012C8DB00E
:107A04004FF000033CD1C288CDF8063095008DF8C4
:107A140001500D0E8DF802500D0C49BAADF804104A
:107A240041788DF803508D1E69426941C2F3861274
:107A340042EAC1128DF80A3008938DF80C308DF8A3
:107A44001830C3898DF80020ADF81A300622C36AB5
:107A540005920B93828A837DADF81E20026A8DF80D
:107A64001C40CDF810D009920BB1064B5B7D8DF80C
:107A740028306FF0010103A8FFF772FF0DB030BD8D
:107A84001846FBE75C34002091F84830022B10B50F
:107A94000C4602D07846FFF7A5F8022384F8683034
:107AA40094F84830022B06D1E16C2046FFF7A4FF7E
:107AB40008B984F8680010BD2DE9F04F0C469FB05A
:107AC40090461F460546002800F09381002A00F0E6
:107AD400908121B9092630461FB0BDE8F08F1346C6
:107AE40009AE02F1180C18685968324603C208330B
:107AF40063451646F7D12B78002059B2CA0F81424C
:107B04008DF81820B4BF0422012294428DF8190084
:107B1400E0D39DF82F60EEB103F07F0381428DF82E
:107B24001B308DF81A002EDA6A78AB78920102F4D1
:107B3400FE5242EA9302ADF81E20DB00EA7803F01D
:107B4400180343EA521302F01F028DF820308DF817
:107B5400212018E0C3F38010002903F03F038DF8BF
:107B64001B008DF81C3008DA95F90130002BB4BFE6
:107B7400082304238DF81A30D6E704231A449442C8
:107B84008DF81A30A6D300230F933B78032B02D928
:107B94007846FFF727F83A78974B06A853F822302F
:107BA4001193FFF709FA0646002894D1D8E9031285
:107BB400B8F8080004F0A4FD00288CD104A9B8F892
:107BC4000200CDE904660BF019F938B19DF81930BB
:107BD40043F001038DF81930059B0A939DF8193081
:107BE400002B3FF478AF9DF81820002A00F0EF80B6
:107BF400DFF80CB20023DA469AF84820022A3FD074
:107C04000133042B0AF1700AF6D19DF8183013B928
:107C14007846FEF7E7FF06A8FFF7A4F8774ABDF811
:107C24002CE04FF0000A9446138873453DD1D2E905
:107C34000289494508BF404537D106AD0FCD12AC86
:107C44000FC40FCD0FC495E80F000CEB0A1A84E89B
:107C54000F009AF802308DF84930002B3FF43BAF07
:107C640012A8FFF791F8014612A8FFF7C5FE9AF88B
:107C74000230DC077FF52FAF06A8FFF7F9F92AE7F2
:107C8400BAF81410BDF82C209142B9D106A8039378
:107C9400FFF768F8804650468946FFF763F8894540
:107CA40008BF8045039BABD215E70AF1010ABAF17C
:107CB400080F02F11002B7D100239BF84820022AD2
:107CC4001AD1BBF81420724516D14D4A4FF0700BEF
:107CD40006A80BFB032BFFF745F880465846894658
:107CE400FFF740F8494508BF404580F095800521DD
:107CF4005846FFF709FC04E00133042B0BF1700B29
:107D0400DBD19DF82F209DF82130002A14BF4FF0BD
:107D140008084FF00C0803FB088814BF4FF4807365
:107D24004FF4C073984517D9364B1B6858077FF535
:107D3400D2AE354B1B68002B7FF7CDAE334B344AA4
:107D4400D3F8043533490092CDF8048040F29232DE
:107D5400012003F02FFDBEE6BDF81E100C98FEF7BF
:107D6400C1FF0D9A0146BDF82C0004F0C9FC00289F
:107D74007FF4B1AE4246022106A8FFF783F883469A
:107D8400002849D1014606A8FFF736FE2C225946A1
:107D940012A815F091F810238DF8483012A8022388
:107DA4008DF8503000F04EF995E6002B08BF4FF0E7
:107DB4000C0A544500F09A8004215846FFF7A4FBAE
:107DC400002688E63B465A46FFF774F9C4E0DA0712
:107DD4007FF581AE9DF82F30681C611E23B13B46B0
:107DE40006AAFFF701FC76E63B4606AAFFF762F90E
:107DF40071E60E266FE600BF58D40300D833002086
:107E040074340020042E0020002E002000100140B5
:107E140055D50300C7D40300534B1B685B0711D52A
:107E2400524B1B68032B0DDD514B9DF82020D3F8DA
:107E3400043501924F4A00924F494FF47172042065
:107E440003F0B8FC9BF84830022B02D07846FEF7CA
:107E5400C9FEDFF82881D8F8009001F06FFF09EB24
:107E640000010BF1300001F040FF9BF80C30012BB6
:107E74001AD19BF86830BBB99BF84830022B02D06A
:107E84007846FEF7AFFED8E9013298F8151002FBE8
:107E9400013801F053FF00EB08010BF1500001F031
:107EA40024FF01238BF868309DF82010DBF84C3058
:107EB40001228A4013EA02087FF40DAE1343CBF883
:107EC4004C309DF82F309BF80920002B14BF4FF045
:107ED40008094FF00C098A42A4F1040409FB01F9D2
:107EE4007FF463AF09EB0403ABF84A30DBF81820E6
:107EF4000C9B9A420BD20DF1240EBEE80F000BF13D
:107F04000C0CACE80F009EE803008CE80300DBF8DF
:107F14006C002246291D484414F0A5FF5846DBF89E
:107F24004C40FEF731FF84427FF4D5ADDBF84C10B2
:107F34005846FFF761FD9BF80130D9070CD59BF833
:107F44001730DBF86C00BBF84A10002B3FF43AAF53
:107F54003B465A46FFF748FB58460121FEF722FFED
:107F64005846FEF7F5FF2BE7042E0020002E0020D4
:107F74000010014069D50300C7D403005C3400201D
:107F8400F7B5184C00262546374695F84830012B9E
:107F94000BD101A928460197FFF78BF9042801D0DA
:107FA400019B13B12846FFF7FFF90136042E05F1B2
:107FB4007005EAD1002594F84830022B0AD194F8D0
:107FC4006830022B06D1E16C2046FFF715FD08B995
:107FD40084F868000135042D04F17004EBD101200C
:107FE40003B0F0BD743400202DE9F84388460746F9
:107FF400F0B1124E3468CCB9254600F10409454568
:1080040007D10F4BC3E90075012333602046BDE857
:10801400F88359F835305BB117F83500030609D4F5
:1080240050B1FEF769FE38B90135E8E70424EDE7FD
:108034000E24EBE70B24E9E70F24E7E7C433002021
:10804400C8330020F8B5074610B97846FEF7CAFDD4
:108054000F4E346894B10F4D01232B7023791BB953
:1080640054F8043C384698472468002CF6D12B7801
:10807400022B03D13168064C09B92970F8BD0B797C
:108084000E6813B1204603F01AFB3146F4E700BF33
:10809400383600203436002010B5044610B978462E
:1080A400FEF7A0FD00232372211D0248BDE8104005
:1080B40003F0E4BA383600200B888268D25A0732BB
:1080C40022F00302134402889BB2043A934288BF0D
:1080D40000230B80704713B58368C91AADF80610E6
:1080E4000DF10601FFF7E8FFBDF80630806818447B
:1080F40002B010BD70B5064615460C4611B9784657
:10810400FEF770FD16B97846FEF76CFDB4F1005F1A
:1081140024D94FF08053D3F80C3103F50023B4EB8A
:10812400832F1ED26B1E2344B3F1005F26D94FF078
:108134008052D2F80C2102F50022B3EB822F20D218
:10814400042D02D87846FEF74DFD35800023043D0A
:108154007380B380B4602580A37070BDB4F5000F44
:1081640008D94FF08053D3F80C3103F50053B4EB26
:10817400832FD7D37846FEF735FDD3E7B3F5000F49
:1081840008D94FF08052D2F80C2102F50052B3EB1B
:10819400822FD5D37846FEF725FDD1E738B50446BE
:1081A40010B97846FEF71EFD6288A36813449B78D5
:1081B400012B02D17846FEF715FDEFF3108572B658
:1081C400A268A18811448B78032B0AD12046FFF7BB
:1081D40082FFA368C31A63800023837005B962B663
:1081E40038BD002393706380A380F7E7F8B50E468B
:1081F4001546044610B97846FEF7F4FC16B97846DD
:10820400FEF7F0FC6288A36813449B78012B02D12B
:108214007846FEF7E7FC002D37D02388043B9BB259
:108224009D4232D8EFF3108772B66188A388EA1DA5
:1082340022F00302994292B204D25B1A9A4210DDF0
:10824400042016E018D92088401A904209D29A4294
:10825400F6D8032881BFA3685B1804229A70002310
:1082640063806288A1688B188D5201229A70002065
:10827400336007B962B6F8BDA26813449B78002B3B
:10828400DED193706380A380EBE70920F3E7F8B5B0
:108294000D461646044610B97846FEF7A3FC15B9F8
:1082A4007846FEF79FFCAB78012B02D07846FEF7A8
:1082B40099FC2B88B34202D27846FEF793FC16B998
:1082C4007846FEF78FFCEFF3108772B60223AB708B
:1082D400E1182E802046FFF7EFFE6288A3889342C0
:1082E4001FBFA3689B1800229A7007B962B6F8BD35
:1082F40070B50D46044610B97846FEF773FC15B9FF
:108304007846FEF76FFCEFF3108672B6A288A36876
:1083140013449A78042A06D1211D2046FFF7CCFE87
:10832400A288A36813449A78022A05D0032A08D0A5
:10833400052006B962B670BD03229A702B60002036
:10834400F7E77846FEF74EFCF9E738B5044610B96E
:108354007846FEF747FCEFF3108572B6A088A16853
:1083640001448B78042B03D12046FFF7B4FE014669
:108374008878831E5842584105B962B638BD38B56D
:10838400044610B97846FEF72DFCEFF3108572B65B
:10839400A088A16801448878C31E012B05D9831ED7
:1083A4005842584105B962B638BD2046FFF793FEDE
:1083B4000146F0E7F8B50D46044610B97846FEF7D5
:1083C40011FC15B97846FEF70DFCEFF3108672B672
:1083D400AB78012B19D0032B22D1A288A3681344B4
:1083E4009D4202D07846FEF7FDFB0027AF70211DA9
:1083F4002046FFF761FEA288A36813449B78042BF0
:1084040000D1A78006B962B6F8BD6288A368134498
:108414009D4202D07846FEF7E5FB0023AB70F1E7FE
:108424007846FEF7DFFBEDE710B5EFF3108472B684
:108434008288816811448B78042B02D1FFF74BFEAC
:1084440001468878B0FA80F0400904B962B610BDDC
:10845400037942799B1A03F57F2303F6FF7300EB3C
:108464000330704710B5054884681C22002114F0BD
:1084740023FD2046BDE8104003F02ABF3C3600200F
:1084840070B5194CE36813B97846FEF7ABFB237E4D
:1084940013B17846FEF7A6FB6368092B02D9784628
:1084A400FEF7A0FB114D0026636855F8233098476A
:1084B400022811D003280DD0012810D1636801339C
:1084C400092B636002D97846FEF78CFB237E002BD0
:1084D400EAD004E06660F9E7237E0BB1207070BD3A
:1084E400BDE87040FFF7BEBF3C360020A4D50300B2
:1084F400038810B5044613B97846FEF773FB208849
:10850400074B04EB800030EA030203D06288B2F523
:10851400FE4F04D11C4004F580542078204410BD43
:1085240000F0FFFF70B504460E4647F6FE65FFF700
:10853400DFFFB04207D2844205D24388013B9BB29D
:10854400AB42F4D870BD0020FCE700000A78094B68
:10855400032A04BF002119761978012903D11B7E4F
:108564003BB9FFF78DBF022903D1032A01D1FFF7DD
:1085740079BF70473C36002010B50C4CE36818787E
:10858400002203F58051184404F096F950B9E168CB
:108594000846FFF75DFF814206D001F58051E16096
:1085A400032010BD0120FCE70220FAE73C3600203E
:1085B4001FB50A4B02221B688DF800200193084A5C
:1085C4004FF4805369460120029300F0F3FEB0FAA1
:1085D40080F0400905B05DF804FB00BF5C36002064
:1085E400583600201FB50123CDE902210190054A28
:1085F4008DF800306946184600F0DCFE05B05DF8E1
:1086040004FB00BF58360020264BD8680279417914
:10861400013A91422DE9F0471E4603D101205876D4
:10862400BDE8F08700F580531F491C781C440B6893
:1086340013F8045F1D44FFF70BFF6388013B9BB2F3
:1086440047F6FE62934200F58057884604D92046D7
:108654003946FFF767FF0446DFF850A04FF00109E1
:108664002CB9B4FA84F4640974760120D8E7D8F8F4
:1086740000106288284601F5805104F01DF9054672
:108684000028EED004225146204686F81890FFF7C1
:10869400A9FF28B920463946FFF744FF0446DFE71F
:1086A4000020BDE73C3600205C360020BCD7030028
:1086B40038B5104CE36818784FF6FF7203F5805113
:1086C400184404F0F9F888B1E36819780B44984227
:1086D4000CD0657E0849094B0422002D08BF1946B9
:1086E400FFF780FF20B90120207638BD0120FCE788
:1086F4000020FAE73C360020C4D70300C0D70300AB
:1087040070B50C4D0C4EE96830680C780430224684
:10871400FFF768FF58B9336804F0FC0404341C44C0
:10872400EB686C611A7813442B61012070BD002042
:10873400FCE700BF3C3600205C36002008B5054B42
:10874400054918680422FFF74DFFB0FA80F040098C
:1087540008BD00BF5C36002048360020074B10B52A
:108764001968074C40F6FC720431E068FFF73AFFE1
:1087740010B90120207610BD0020FCE75C360020F3
:108784003C36002010B50C4CE1680846FFF760FE4B
:1087940081420AD1094B0A4918680422FFF722FFD3
:1087A40040B901232376022010BD01F58051E16018
:1087B4000320F9E70020F7E73C3600205C36002070
:1087C400603600202DE9F74F324C236913B97846FF
:1087D400FEF708FA636913B97846FEF703FADFF87F
:1087E400B89047F6FE6A6369D4E9030603EA090808
:1087F400A8EB0308FFF72CFE7388013B9BB253459B
:1088040008F5805800F5805B05D930465946FFF7D6
:1088140089FE064668B1354600275D4513D327BB5C
:10882400012335B1698847F6FF72914201D0002BCC
:10883400D9D001202AE028460192FFF759FE019A77
:1088440005461746E9E72A8807EB8202904509D9CD
:1088540086EA050313EA090F04D16B88013B9BB236
:108864005345E8D90FB90123DCE73A46314660693C
:10887400FFF7B8FE48B963691F44676115B97846C4
:10888400FEF7B0F925610023CBE7002003B0BDE873
:10889400F08F00BF3C36002000F0FFFF1FB50A4BED
:1088A4000222DB688DF800200193084A4FF48053BC
:1088B40069460120029300F07DFDB0FA80F0400982
:1088C40005B05DF804FB00BF3C360020583600209C
:1088D4004FF0102310B55A6901321ED05A69E2B123
:1088E4005B69A3F58053A3F58053164A1968136096
:1088F4004B1E033324D8C1F30B030BBB124A13489A
:10890400D1600121117012491383936001330A2B42
:1089140009D17846FEF766F90AE04FF080525169B2
:1089240013694B43DFE751F823408442EED153608F
:108934000120084900F02EFDFFF7A2FD012010BD23
:108944000020FCE75C3600203C360020A1880200B1
:10895400A4D503005185020010B5044610B9784629
:10896400FEF740F9094B187860B1E068D96843799B
:10897400A0EB0333994206D3FFF76AFD81428CBF13
:108984000020012010BD0020FCE700BF3C36002081
:10899400024B1878003018BF012070473C36002085
:1089A40038B50E4C2378054613B17846FEF71AF90C
:1089B4002B78032B02D07846FEF714F9EB68E360BA
:1089C400012000230649A56063602070238300F022
:1089D400E1FCBDE83840FFF753BD00BF3C36002042
:1089E40051850200014B1868704700BF5C360020B7
:1089F40010B5044610B97846FEF7F4F863681BB165
:108A040023680BB1A36813B97846FEF7EBF8A368A3
:108A14005A1E1A4202D07846FEF7E4F80023C4E94D
:108A2400033310BD70B50E460446F0B18368F3B14C
:108A3400EFF3108572B6D0E90331994203D105B939
:108A440062B605250FE04EB18368013B0B40D0E9C7
:108A54000012304602FB031114F005FA23690133B6
:108A6400236135B962B6284670BD0E25FBE709259A
:108A7400F9E70025F7E70000024AD2F80034002B9A
:108A8400FBD0704700E0014038B5C0F30B05EDB9E9
:108A9400F1B1104C0223C4F80435FFF7EDFF01F6E1
:108AA400FF7121F47F6121F00F010144884206D156
:108AB4000023C4F80435FFF7DFFF284638BDC4F8A7
:108AC4000805FFF7D9FF00F58050EFE71025F4E71C
:108AD4000925F2E700E0014040EA010370B50646CB
:108AE40098071ED1FAB112F003001CD10F4B940861
:108AF4000122C3F80425FFF7BFFF0546A54206D1AE
:108B04000A4B0022C3F80425FFF7B6FF70BD51F8E5
:108B140025305A1C03D046F82530FFF7ADFF013548
:108B2400ECE71020F2E70920F0E700BF00E0014085
:108B34004388012B05D0022B01D1043008600120A9
:108B4400704704304860FAE708B508220221094852
:108B540003F015FA20B90848BDE8084003F090BBBB
:108B6400064A9168127B02724160BDE8084003F036
:108B740035BA00BF6C360020C42D0020B836002062
:108B840010B5044610B97846FEF72CF82346BDE824
:108B94001040184700B50A4B1A7B9B688DB0012A18
:108BA40008BF03F1FF3304930390022301A88DF857
:108BB40008208DF80430FFF745FA0DB05DF804FB8A
:108BC400B836002038B50E4D2B78C3B90D4B5C6810
:108BD40004F50054B4F1807F11D8042201210A481D
:108BE40003F0CDF920B90948BDE8384003F048BB8B
:108BF400012344602B70BDE8384003F0EFB938BD61
:108C0400CC360020B83600206C360020B42D00206D
:108C140010B501210C4803F0F7F980B902210A4884
:108C240003F0F2F9044650B901461422074814F03F
:108C340043F9074B1C70BDE81040FFF7C3BF05485C
:108C440003F01EFBF7E700BF6C360020B8360020A7
:108C540090360020E42D002030B50D468DB07AB951
:108C64004B88012B0AD1124C227812B97846FDF7B1
:108C7400B9FF104B6A685A60002323700DB030BDF1
:108C8400032A02D07846FDF7ADFF2C22002101A86B
:108C940014F012F911238DF80430074B0395DA68A8
:108CA4001B69059201A80693FFF7CCF9E6E700BF1C
:108CB400CC360020B83600206C36002013B501F005
:108CC400E7FC00216B46124A1248134CCDE900110F
:108CD40003F0A8F8009B0BB1019A6AB90023236042
:108CE400A3602373FFF730FF23686360FFF76AFF15
:108CF40001F00EFD02B010BD1968A160197921734D
:108D0400934202D909B92160EEE713682360EBE7C7
:108D1400358B02006C360020B836002008B503F00D
:108D2400FDFAA0F5805008BD7FB5002118226846E1
:108D340014F0C2F8FFF7F2FF012300900193694693
:108D4400054B0648039303F087F910B1044803F078
:108D540097FA07B05DF804FB5D8C02006C360020C6
:108D6400D42D002008B5142200210A4814F0A4F8D8
:108D740000F0E4FF084B094A09499A600022586050
:108D8400C3E903125A61074B1A70BDE80840FFF7A4
:108D9400CBBF00BFB836002094360020998E020065
:108DA40000879303CD36002010B5074C23784BB9C8
:108DB4000648074B036000F053FD064800F05CFFD3
:108DC4000123237010BD00BF68360020AC3600209C
:108DD400018F02009436002010B501F059FC104AAE
:108DE400117B1346C9B9917BB9B9118A41F28262E8
:108DF400914202D80B4A12787AB101221A739A6806
:108E0400002401321C829A60FFF79EFE2046FFF781
:108E1400C1FE01F07DFC204610BD0824F9E700BF27
:108E2400B8360020CD36002010B501F031FC174AC9
:108E3400547B1346BCB1917B21BB118A41F28262FF
:108E4400914202D8124A1278F2B11A7B0020587368
:108E54002AB1012A0BD07846FDF7C4FE03E0FFF7E0
:108E6400BBFF0028F7D101F053FC204610BDC3E935
:108E7400000018731882FFF78DFEFFF765FEFFF7F9
:108E8400A1FEF0E70024EEE71446ECE7B836002034
:108E9400CD36002010B5174C237B2BB1012B12D0FB
:108EA4007846FDF79FFE1EE0228A41F282639A42D1
:108EB40002D8114B1B78B3B1FFF7B6FF638A0BB12D
:108EC400013B638210BD228A41F282618A4206D943
:108ED40042F2B0118A420AD8FFF7A6FF03E0064B1C
:108EE4001B78002BF8D1238A01332382E6E76373CE
:108EF400E2E700BFB8360020CD3600200378042B0B
:108F040010B50ED143681B785BB11C4B4269197BC9
:108F1400047E69BB598AF9B9012C996802D08A4246
:108F240003D810BD4C1CA24218D92A318A42F8D861
:108F3400997B0029F5D184689A60114A1A61998154
:108F4400C3E90011FFF700FEFFF73CFE04F1100037
:108F5400BDE81040FFF71EBE012CE2D19968013133
:108F64008A42DED10122BDE810405A73FFF75CBF8C
:108F74000129D6D1012CD4D09968F1E7B836002064
:108F84000000062D38B5164CD4E900239A42054654
:108F94001FD2207B134B1449012808BF0B469A4269
:108FA40007D263682268403B9A4208D3FFF70AFE5F
:108FB40005E001236373FFF737FF0028F1D0EFF3D7
:108FC400108072B623685A1C22602B6028B962B6DE
:108FD40038BDFFF7F7FD0F20FAE70020F8E700BFE0
:108FE400B8360020FFFF7F0000E0FF000C4A10B5F8
:108FF4001368144628B101200A4903448873136096
:1090040010BD13B97846FDF7EDFD2368013B2360DD
:10901400002BF5D1034ABDE810409373FFF704BF5A
:1090240064360020B836002000B58DB00323ADF8B7
:10903400080001A88DF8102003918DF80430FFF783
:1090440001F80DB05DF804FB014B9868704700BF50
:10905400B8360020034B98681B7B012B08BF00F136
:10906400FF307047B8360020044B9B685840C20755
:1090740048BF03F1FF331846704700BFB8360020DD
:10908400014B187B704700BFB836002038B50A4B37
:109094001C787CB9094D01221A702973A860FFF766
:1090A40053FD2046FFF776FDC5E90044FFF78AFD2E
:1090B400204638BD0820FCE790360020B836002052
:1090C4002DE9F8431D4CDFF8789000260221204654
:1090D40002F0E2F95FFA86F805460027ADB967B1F8
:1090E4002946204602F03FFA082806D154F8043CE9
:1090F4001BB12A464946404698470136032E04F1DF
:10910400BC04E3D10120BDE8F88354F8043C23B146
:1091140034F80C2C29464046984734F80C3C02217C
:109124000133204624F80C3C02F0D2F902212046F7
:1091340002F0B2F901370546D0E700BFE43600205B
:10914400CCD5030038B5012104460C3002F0A4F953
:10915400054628B3164BC4F89C300023C4F8A0304D
:1091640003786268012B07D0022B1BD07846FDF7E9
:1091740039FD4FF4FA7307E081688B1A99084FF4AC
:10918400A9734B4303F5FA730A4A934294BFC4F894
:10919400A830C4F8A8200123C4F8AC4084F8B8303F
:1091A400284638BD83689B1A1A0B034B5343E9E7DF
:1091B400E191020060850100645E010010B504467F
:1091C400FFF7C0FF48B104F19C000AF055FB20B141
:1091D4007846BDE81040FDF705BD10BD4B4B1B782C
:1091E4002DE9F74F80460D463BB10AF07BFB002387
:1091F40085F8B83003B0BDE8F08F01F10C09D1F85F
:10920400A8704846012102F047F9064610B978468D
:10921400FDF7E8FCDFF8FCA0A7F5FA7700244FF48B
:10922400A97B3378012BA7EB040406D0022B3BD097
:109234007846FDF7D7FC00231FE06B68B268B4FBE7
:10924400FBF4D21AA400944228BF144624B9019313
:109254007846FDF7C7FC019BF168706823F00303AF
:10926400224619441844FFF737FC10B17846FDF73D
:10927400B9FC6B681C446C60B3686A689A422AD172
:109284000AF030FB4846012102F022F900236B600A
:1092940085F8B8301E4B186801F088FA284603B0E8
:1092A400BDE8F04FFFF78ABF6B68B268B4FBFAF40D
:1092B400D21A2403944228BF144624B90193784651
:1092C400FDF790FC019B706823F0030321461844CA
:1092D400FFF7DAFBC9E701F0CDF83378B0EB080407
:1092E40048BFA8EB0004012B0BD0022B0CD078460E
:1092F400FDF778FC00232344BB4292D90AF0F2FA2A
:10930400CCE74FF4A973F6E75346F4E7D4360020CC
:10931400D0360020645E010070B51B481B4C01F080
:1093240027FA1B4B186004F11C0341F203060825BD
:10933400636104F10C0004F118032361A681A57391
:1093440002F0EDF804F1D803C4F8D03004F1C800F9
:1093540004F1D403C4F8CC30A4F8C86084F8CA502B
:1093640002F0DDF804F5CA73C4F88C3104F5C8734F
:10937400A4F8846184F88651C4F8883104F5C27075
:10938400BDE8704002F0CBB8C5900200D83600208A
:10939400D0360020022838B504460D4602D9784656
:1093A400FDF720FC024BBC2202FB0434A56038BD4F
:1093B400D836002002282DE9F84F05460C4692467F
:1093C40002D97846FDF70EFC14B97846FDF70AFC7D
:1093D4002378012B12D16368990702D07846FDF7F0
:1093E40001FCE3689A0702D07846FDF7FBFBA3680B
:1093F4009B0711D07846FDF7F5FB0DE0022B0DD14C
:109404006368C3F30B0313B17846FDF7EBFBA36862
:10941400C3F30B03002BEDD1A36813B97846FDF712
:10942400E1FBEFF3108772B6BC266E43DFF8908041
:1094340006F10C0BC3440021584602F02DF8814676
:1094440038B30021584602F043F804F1100354F8ED
:10945400042B49F8042B9C42F9D1BAF1000F05D032
:10946400BC2303FB05835B88AAF80030BC2303FB01
:1094740005856B8895F8B84001336B80E4B90F4BD0
:109484001D783DB908EB0600FFF75CFE2FB12C46B2
:1094940005E004246FB92746002062B63C4640B17B
:1094A40006F19C0040440AF0E7F910B17846FDF754
:1094B40099FB2046BDE8F88F0024EBE7D436002062
:1094C400D836002070B50A4D0024EFF3108672B62A
:1094D4000021281902F047F806B962B6082805D118
:1094E400BC34B4F50D7FF0D1002070BD0120FCE741
:1094F400E436002070B5EFF3108672B6144C23687E
:1095040018BB13B97846FDF76DFB2368013B236054
:1095140093B9104D95F8B83013B92846FFF74EFEAD
:1095240095F8743113B90C48FFF748FE95F83032BA
:1095340013B90A48FFF742FE2368094A003318BFEB
:109544000123137006B962B670BD01332360F3E7DB
:109554000C390020D83600209437002050380020E1
:10956400D436002010B1800B014B185C704700BF4B
:10957400DCD5030012DF7047137813B563B1022BF7
:109584000CBF0724002410F8013C292B43D005D834
:10959400162B4BD002B010BD547DF4E72A2B1BD000
:1095A4002B2BF7D1022CF5D110F8021C0139C9B2CA
:1095B40003F008F90028EDD0234B1B685B06E9D5BE
:1095C400224B1B68012BE5DD214B224AD3F80435DD
:1095D40000920190A62219E0022C01D0072CD9D1C7
:1095E40010F8021C013901F04BFC0028D2D0164BB4
:1095F4001B685A06CED5154B1B68012BCADD144BCC
:10960400154AD3F80435009201909322134902209D
:1096140002F0D0F8BEE7022CBCD110F8021C0139CC
:10962400C9B202B0BDE810400EF094BC01884FF6F8
:10963400E4639942AED110F8021C0230033902B03F
:10964400BDE8104005F082BC042E0020002E00204E
:109654000010014067D603003ED6030033D6030052
:1096640070B58AB00AF0F8FD0446002834D000230F
:1096740006468DF810300FCE05AD0FC533682B604C
:10968400627D052A0CD9207D00F00F03072B07D03B
:1096940004AB063A04F11D0100F00F0009F0AEFC22
:1096A400114B1A68AAB104AB0393237DC3F30303DC
:1096B4008DF80430637D062B89BF063B00238DF8AB
:1096C400053004F11D0398BF8DF80530029301A8FD
:1096D400904720460AF0AAFD0AF0D8FD80F0010068
:1096E400C0B20AB070BD00BF14390020F7B5354FC1
:1096F4003A780546002A5BD100285BD0067A0F2E03
:1097040001D0062E58D104F0BFFDE86800284CD0E3
:10971400FDF77AFA0DF10700FFF72CFF0446002845
:1097240040D19DF80730012B48D1FDF795FA00F0A0
:109734008FFA304600F05EFFE87800F00DF900F093
:109744009FFD0AF053F820480AF036FE09F0D0FDD8
:10975400FFF7E2FD03F080FF00F03AFC04F054FD53
:1097640004F072FB284601F0EFFAFEF73FF803F02D
:1097740077FB05F075FA08B1062821D1134809F0E2
:109784000FFC2A2009F0AEFC2B2009F0ABFC2920A9
:1097940009F0A8FC162009F0A5FC0D4B00221A6064
:1097A40001233B70204603B0F0BDFDF739FAB1E761
:1097B4000824F7E70E24F5E70724F3E70224F1E78A
:1097C4000446EFE71039002065960200F42D0020CE
:1097D4001439002037B51B4D2B78012B05D013B15C
:1097E400033B012B26D908241FE00AF001FD01F0F8
:1097F400BBFAFEF73DF805F099FB0446C0B1062814
:1098040016D0114B1B685B040FD5104B1B68012B42
:109814000BDD0F4B0F4AD3F804350F49019000922A
:10982400022040F2A71201F0C5FF204603B030BD6C
:1098340000F00CFF0AF012F804460028F5D10223C8
:109844002B70F2E710390020042E0020002E002097
:1098540000100140E0D5030033D60300FEF70AB838
:10986400FEF71ABC08B500F0DBFC002008BD704709
:10987400044B1A680132B2F1704F08BF01221A601A
:10988400186870471839002010B5044610B9784696
:10989400FDF7A8F90023C4E9003310BD38B50D461F
:1098A400044610B97846FDF79DF915B97846FDF7D9
:1098B40099F900236B60EFF3108372B6226822B922
:1098C4002560656003B962B638BD62685560F8E723
:1098D40010B5044610B97846FDF784F9EFF3108209
:1098E40072B6206820B90023636002B962B610BD65
:1098F40043682360002BF8D1F5E710B5044610B98E
:109904007846FDF76FF9206810BD35DF70473CDFFE
:1099140070473DDF7047000010B504464FF0FF303C
:10992400FFF7F3FFFF210020FFF7F3FF214600209C
:10993400FFF7EDFFBFF34F8F0549064BCA6802F4EA
:10994400E0621343CB60BFF34F8F00BFFDE700BF5E
:1099540000ED00E00400FA0507289ABF024B33F833
:109964001000FA20704700BF92D60300024B5868DB
:10997400103840B2704700BF00ED00E000280346F5
:10998400B8BF00F11F03084A5B1152F8233042426A
:1099940002F01F0200F01F0058BF504223FA00F0EB
:1099A40000F00100704700BF00E100E046DF7047AF
:1099B40030B501F110031032103013F8014D12F8D4
:1099C400015D8B4284EA050400F8014DF5D130BDF8
:1099D4002DE9F04F91B002F10F0504AE98468A4686
:1099E4002D11034600F11004B14618685968374632
:1099F40003C70833A3423E46F7D102F00F040DB16A
:109A0400002C54D000274FF0020B1022002108A88C
:109A140013F052FA4846FFF7C9FF01220CA89DF93A
:109A240030100F23064690F800C010F801EF4FEAFB
:109A34004C0C013B4CEADE1C9BB200F801CC002B21
:109A4400F1D19DF83F305B00DBB20029B8BF83F051
:109A540087038DF83F30531C9B454FF00202DDD243
:109A6400013D0AEB05112FB30CAA6846FFF7A0FFCE
:109A7400102200210CA813F01FFA0024AC422BDBA7
:109A84003246694608A8FFF793FF4846FFF78EFF62
:109A940010AA334603CB9342C8F80000C8F8041058
:109AA4001E4608F10808F4D111B0BDE8F08F012773
:109AB400BB46AAE72246684613F0D5F910AB234407
:109AC400802203F8402C0134102C02D10CAA6946E0
:109AD400CBE70DF80470F6E70AEB0412314608A848
:109AE400FFF766FF4846FFF761FF0134C6E7000051
:109AF40038B5124B1A6804462AB11A684568526888
:109B0400AA1A002A0DDA1A6862611C609A88013266
:109B140092B29A8012B97846FDF764F80123237053
:109B240038BD19684A691AB15068401B002802DB25
:109B340062614C61EAE71146F4E700BF2039002076
:109B4400124B1A68824210B51A4604460BD1426978
:109B54001A609A8892B2511E89B299808AB978465D
:109B6400FDF740F80DE01B685BB15969A1420BD1C8
:109B74006169596193889BB2591E89B29180002B07
:109B8400EDD00023237010BD0B46EDE720390020F3
:109B9400014B186800F00ABE1C390020044B1A68F7
:109BA40022B11B680349586800F052B900F0A6B905
:109BB40020390020959B02002DE9F04100F0BEF809
:109BC400224E054637464FF00008336823B1336808
:109BD4005B685B1B642B06D400F0B0F8FFF7DEFF74
:109BE4000120BDE8F08134682378012B02D0784647
:109BF400FCF7F8FF63693B60BB88C4F814809BB230
:109C04005A1E92B2BA8013B97846FCF7EBFFA368E8
:109C140013B97846FCF7E6FF02232846237021692E
:109C2400A368984700F08AF82378022B0546CCD124
:109C3400E2680AB92270C8E763681344591B6429AF
:109C4400FBD463602046FFF753FFBEE720390020B2
:109C540008B5064B064800221A605A6000F088FDD9
:109C6400044B1860BDE8084000F05BB820390020C0
:109C7400BD9B02001C39002010B5044600F070FEA4
:109C840010B97846FCF7AEFF14B97846FCF7AAFF82
:109C9400A36813B97846FCF7A5FF2378012B02D1FA
:109CA4007846FCF79FFF002363612046FFF720FFFF
:109CB40000F044F8BDE81040FFF770BF10B504464B
:109CC40000F04EFE10B97846FCF78CFF14B97846C4
:109CD400FCF788FF2046FFF733FF0023636100F0A1
:109CE4002DF8BDE81040FFF759BF38B504460D46BE
:109CF40000F036FE10B97846FCF774FF14B97846C4
:109D0400FCF770FF2046FFF71BFF0023636120462A
:109D14006560FFF7EDFE00F011F8BDE83840FFF78D
:109D24003DBF08B511F0C4FA38B911F0FFF920B1FC
:109D34007846BDE80840FCF755BF08BD10B5EFF301
:109D4400108072B60C4A0D4B1968D2F80435D2F85B
:109D54000441012C04BFD2F80435013100B962B6C4
:109D6400074843EA01614FF480420023E0FB0123EA
:109D7400D00B40EA434010BD0010014028390020B8
:109D840040420F000A4B10B54FF40032094CC3F89F
:109D94004823C3F80823226812B97846FCF722FF47
:109DA4002468FFF7CBFF2346BDE81040184700BFE7
:109DB400001001403439002010B5EFF3108072B662
:109DC4001E4B1F490022C3F804210A6801320A60AD
:109DD40000B962B61B4A116809B3116801391160F0
:109DE4001268E2B9184AD3F804051168884217D2F8
:109DF400EFF3108072B6D3F8041514680131A14250
:109E04002ABFD3F8042512680232C3F8442500B9E6
:109E140062B64FF40032C3F84423C3F8042310BDE0
:109E24000A4C226812B97846FCF7DCFE2468FFF776
:109E340085FF2346BDE81040184700BF00100140CD
:109E4400283900202C3900203039002034390020F2
:109E540037B50023044601930D4611B97846FCF743
:109E6400C1FE204B1D60FFF769FF031B002BB8BF29
:109E7400241A1D481D4AA8BF00244FF400450021A0
:109E84000023E5FB040112F0A9FEEFF31083019314
:109E940072B6174A174CD2F804350228C3F1FF11E1
:109EA40001F57F4138BF02208142134910D3034496
:109EB400C2F844354FF40033C2F84433C2F80433D3
:109EC400002323600B60019B03B962B603B030BD6D
:109ED40003F17F43013303441A0E0132226023F05D
:109EE4007F43EFE73439002020A1070040420F00F0
:109EF400001001402C39002030390020074B4FF46A
:109F04000032C3F84823C3F80823054A002313602A
:109F1400044A1360044A1360704700BF00100140F4
:109F24002C390020303900203439002030DF7047CC
:109F340031DF704710B5D0E900238468C168A2EB13
:109F4400731283EAF43303600C44134411444460F1
:109F54008160C360184610BD73B50D46064610B93E
:109F64007846FCF73FFE0024A54201D802B070BD3C
:109F74000DF10700FFF7DAFF9DF80720002AF7D05C
:109F84002B1B9A4288BF8DF8073030199DF80710B3
:109F9400FFF7CEFF9DF807301C44E5E737B50421F1
:109FA400044600230DEB01000193FFF7D5FF074B97
:109FB4002360019BE360C4E9013314252046FFF7C5
:109FC400B9FF013DFAD103B030BD00BFED5EEAF147
:109FD400704748DF704749DF70474ADF7047000029
:109FE400074B03221A741868064A5A6143F2B06197
:109FF40040F6D863984288BF0B469360704700BF11
:10A004006439002084390020054B1B68A0F17802D4
:10A0140028335843034BB0FBF3F0101A704700BFCA
:10A024008039002040420F0038B50E4A0E4C0123FF
:10A0340063711368002501331360257400F076FA08
:10A0440009F0C6FC2068FFF7DFFF084A01462846EE
:10A0540000F0DEF920B17846BDE83840FCF7C2BD17
:10A0640038BD00BF9839002064390020E59F020004
:10A074001E4B30B45C6928B11A68D9682244013196
:10A08400D9601A609A680121013224FA01F5012A83
:10A0940019749A605D6119680DD0022A19D05B6940
:10A0A400134A1944914203D840F6D76293421BD80D
:10A0B40030BCFFF7B9BFB5F5FA7F03D130B9002240
:10A0C4005A61ECE741F6B1529442E8D840F6D862BE
:10A0D400F6E7DA68022A02D1054A521AF0E7012AA1
:10A0E400DDD10028EBD0DAE730BC704764390020BA
:10A0F4008096980070B5424C424D012323712B7811
:10A104001BB1414B1E78002E5BD00023237404281E
:10A1140053D8DFE800F0034D4A4844003B4DA17991
:10A12400AA68C4E9023323682260002934D00121DB
:10A1340021743749002B08BF0B46991AB1F57A7F71
:10A1440026D39A4224D8616143F2B06043F6982240
:10A15400C5E9020201236B71A371237C023B012B2D
:10A164000DD8637943B109F04FFC2068FFF74CFF29
:10A1740000F00EFA00236371234B00221A70237C33
:10A184002448022B04BF012323760023237170BDCE
:10A194004FF47A736361D7E7FFF746FFD4E70120F2
:10A1A400FFF766FFD9E70020FAE709F0BFFBD4E721
:10A1B40000F080F909F0F2FBCFE77846FCF712FDD6
:10A1C400CBE700F057F92B782060022B0FD0032B3C
:10A1D40006D0012B10D10223237400232B70BCE77B
:10A1E4000A4B0D490D4A5E71C3E90212A67103239D
:10A1F4002374064B6361F0E77846FCF7F3FCECE765
:10A2040064390020953900209439002084390020D5
:10A214008096980074390020A0860100FF1FA107D2
:10A22400043808B5042825D8DFE800F016220A030C
:10A234000F00114B1B7E012B1CD1FFF7CCFEC8B1C4
:10A244007846BDE80840FCF7CDBC0B4B00221A76DB
:10A25400BDE8084009F010BC08480123437143F6E7
:10A26400982240F6D863C0E90232FFF7B6FEE6E76B
:10A274000248FAE708BD00BF643900208439002091
:10A284000D4A4FF480710023918043F2B06C43F681
:10A2940098211370C2E902C1084A1060084A137079
:10A2A400084A1370084A1360084A137613609380AF
:10A2B40001239371704700BF843900208039002046
:10A2C4009439002095390020983900206439002001
:10A2D40010B50E4C227E012A0CD022B1022A0CBFEA
:10A2E4001120002010BD0A48FFF773FE10B1784614
:10A2F400FCF778FC0748FFF770FE10B17846FCF7CE
:10A3040071FC022323760020ECE700BF64390020AF
:10A31400F9A0020084390020074B1B7C023B012B6F
:10A3240007D9064B1878013802288CBF0020012079
:10A3340070470120704700BF643900209539002020
:10A34400014B1868704700BF64390020074B5879E7
:10A3540010B548B11868FFF757FE044600F08AF8B4
:10A364000346201A48BF181B10BD00BF64390020E3
:10A37400014B1879704700BF64390020EFF3108354
:10A3840072B6054A527922B1044A4FF48071C2F878
:10A39400001103B962B670476439002000E100E09F
:10A3A400044B1B7E022B04D1034B01221A70FFF7CE
:10A3B400E5BF70476439002095390020054B1B7EAA
:10A3C400022B06D10128044A08BF03231370FFF7A8
:10A3D400D5BF70476439002095390020064B1978A1
:10A3E4001A4631B128B90549097811B11870FFF737
:10A3F400C5BF1070704700BF943900209539002004
:10A40400024B1B6803B962B6704700BFAC39002029
:10A41400022810B522D8EFF31084114B1C6072B6D9
:10A42400104B43F82020104B002243F820200F4B00
:10A434001B787BB1830003F1804303F500431030A4
:10A44400C3F84021012202FA00F0094AC2F80403C9
:10A45400C3F84015FFF7D4FF002010BD0720FCE728
:10A46400AC3900209C390020B8390020A8390020DC
:10A474000080004008B5EFF310820A4B1A6072B6F0
:10A48400094B1B7853B1094B0022C3F84C2101221C
:10A49400DA64D3F84C05FFF7B3FF08BD044B186822
:10A4A400F9E700BFAC390020A83900200080004043
:10A4B400B03900202DE9F84F0024174EDFF85C80F6
:10A4C400A1464FF0010BA50005F1804505F50045B7
:10A4D400D5F84031CBB1D8F8043304F11007FB4070
:10A4E400DB0712D5D6F800A0BAF1000F02D17846E6
:10A4F400FCF778FB0BFA07F7C6F80090C8F8087366
:10A50400FFF7B8FFD047C5F840910134032C06F19A
:10A514000406D8D1BDE8F88F9C39002000800040A3
:10A52400014B1B6818447047B439002008B5134B1D
:10A534000022C3F84025C3F84021D3F84011C3F8E2
:10A544004425C3F84421D3F84411C3F84825C3F87B
:10A554004821D3F848310A4B1B681BB9094B4FF407
:10A5640080721A60084B01221A70FFF7E7FB01465C
:10A57400FFF780FF054B081A186008BD00800040F3
:10A58400AC39002000E100E0A8390020B4390020F3
:10A594000B4A0C4900231360536093600A4A0B6012
:10A5A40010600A4A4B6013708B60094B4FF0FF3206
:10A5B400C3F80823074B4FF48072C3F88021704717
:10A5C400B83900209C390020B0390020A839002077
:10A5D4000080004000E100E0044B1B780F2B1EBFFD
:10A5E400034B4FF48022C3F8002170470C3B00203A
:10A5F40000E100E010B5104C104B207010480360CF
:10A604001023C0E90133FEF7F3F90E48FFF73CF9D4
:10A6140023780F2B0AD0072B09D8EC221A41D20732
:10A6240005D55B01084ADBB282F8123310BD7846C7
:10A63400BDE81040FCF7D6BA0C3B0020D839002006
:10A64400C4390020103B002000E100E00D4B1B78D2
:10A654000F2B0DD00C4991F812335A09EC231341F6
:10A66400DB0706D5094B9A6832B94FF480230B6097
:10A6740070477846FCF7B6BA1A6842F480221A602A
:10A68400704700BF0C3B002000E100E0C4530020F1
:10A69400F8B5EFF3108772B617480268511C0160D1
:10A6A40002BB164B1B780F2B21D0EFF3108C72B624
:10A6B400134A144C95680123E5B99360124B134E69
:10A6C400D3F8801031401160C3F88060D3F884104F
:10A6D40051604FF0FF32C3F884202570BCF1000FA5
:10A6E40000D162B6036813B97846FCF77BFA07B960
:10A6F40062B6F8BD2370F1E7D83A00200C3B002085
:10A70400C45300200D3B002000E100E0FC06FFBD27
:10A7140038B5EFF3108572B6104C236813B9784638
:10A72400FCF760FA2368013B2360A3B90C4B1B7848
:10A734000F2B10D00B4B9A686AB10B4A127852B99E
:10A74400EFF3108072B609491C680C605C684C60B9
:10A754009A6000B962B605B962B638BDD83A00202D
:10A764000C3B0020C45300200D3B002000E100E01E
:10A7740038B5054610B97846FCF734FA094C236815
:10A78400092B02D97846FCF72DFAEFF3108372B641
:10A794002068421C2260044A42F8205003B962B681
:10A7A40038BD00BFDC3A0020E03A00200E4B1B68A5
:10A7B400834210B5044602D87846FCF713FAEFF347
:10A7C400108072B6094A6109012304F01F0403FAD8
:10A7D40004F452F82130234342F82130FFF7FCFE01
:10A7E40000B962B610BD00BFDC3A0020083B00206F
:10A7F40070B50D461646044610B97846FCF7F2F9D2
:10A8040015B97846FCF7EEF9EFF3108372B600221F
:10A81400C4E902562274246003B962B670BD000014
:10A8240070B5044610B97846FCF7DCF9A36813B98F
:10A834007846FCF7D7F9EFF3108672B6237C03F061
:10A84400FF055BB90123064823742146FFF726F868
:10A85400FFF7C2FE284606B962B670BD1120FAE7BA
:10A86400103B002010B5044610B97846FCF7BAF93D
:10A87400207C10BD2DE9FF47324E337813B1784662
:10A88400FCF7B0F90125DFF8CC802F4FDFF8C89032
:10A8940035700024D8F80030A34212D82B48DFF8D2
:10A8A400AC80FFF715F8002760BB294C69462046A9
:10A8B400FEF7B8F8A0B300232846337004B0BDE80F
:10A8C400F087630904F01F0157F82300C840C2074A
:10A8D40016D5EFF3108072B6012202FA01F157F88F
:10A8E400232022EA010247F8232000B962B659F86E
:10A8F40024309847824618B92046FFF757FF55463B
:10A904000134C7E70468237C13B97846FCF76AF975
:10A91400D4E90230984727744046FEF7D9FFC3E7CD
:10A924009DF8003043B1012BC0D1019B002BBDD059
:10A93400DDE902019847B9E7019B002BB6D00298E4
:10A944009847B3E7183B0020083B0020103B002049
:10A95400C4390020DC3A0020E03A0020FFF78ABF27
:10A9640007B5FFF703F88DF803009DF80330174986
:10A97400F02B0DD10B780F2B25D01220FEF7FEFF04
:10A9840080F00100C0B200F0010003B05DF804FBE8
:10A994009DF803305BB2002BADBF03F1604303F0BD
:10A9A4000F030B4A03F56143B4BFD35C93F8003340
:10A9B4005B090193019A0B78934204D0019A934264
:10A9C400DBD30020DFE70120DDE700BF0C3B0020E4
:10A9D40014ED00E046DF7047F0B58DB06D461446C7
:10A9E4000B46024600F1100C2F46106851682E46A3
:10A9F40003C6083262453546F7D104AD03F11006AB
:10AA0400186859682A4603C20833B3421546F7D179
:10AA14003846FFF7DFFF08AD22460CAC2B4603CBCC
:10AA2400A342106051601D4602F10802F6D10DB038
:10AA3400F0BDFEF7CDBF01F038BD01F06FBD30B4FD
:10AA4400032954D8DFE801F00225254E00241C70A8
:10AA5400817A5A7861F30602C17A61F3C7125A7097
:10AA6400C1680D04C1F3074205F47F0501F47F4179
:10AA74002A430A43C2F307219A70120C1A71D9703F
:10AA84000189DC710A0A42EA0122A3F805201C723A
:10AA940022E01970597801F0800162F3C7115970EE
:10AAA400C1680C04C1F3074204F47F0401F47F413C
:10AAB40022430A439A70C2F30721120C1A71D97007
:10AAC40001890A0A42EA01224188A3F805200A0AF8
:10AAD40042EA0122A3F80720026912BAC3F8092046
:10AAE40030BC7047032200241A705C70B8E77846C3
:10AAF40030BCFCF777B87FB50E461546044600B166
:10AB040012B97846FCF76EF810220021684612F05C
:10AB1400D3F92B46324621466846FEF759FF04B066
:10AB240070BD2DE9FF410B9D884616461C4607461D
:10AB340010B10AB103B115B97846FCF753F86B4666
:10AB4400424639463046FEF743FF2B469DF82820FF
:10AB540021466846FEF73CFF04B0BDE8F0810000E2
:10AB6400F0B50F468FB015461E46044608B101B134
:10AB740013B97846FCF736F81DB97846FCF732F875
:10AB840001E0102DF9D8274B1868009005AA04217C
:10AB94006846FFF7B0FF01AB2146102205A8FEF777
:10ABA40017FF2A46394605A812F05DF90EAB2B446F
:10ABB400012203F8242C05ABAA18194692B201A865
:10ABC400FEF706FF9DF82330344603F07F0304F8B4
:10ABD400013B2A46394609A812F045F905F1100748
:10ABE4000EAB1F4411350223ADB207F8243C2A46AC
:10ABF400234605A901A8FEF7EBFE1136234605AC52
:10AC040018685968224603C20833B3421446F7D180
:10AC1400032207F8242C05A92A4601A8FEF7D8FE2A
:10AC24000FB0F0BDA2D6030070B50D4688B006463D
:10AC340000B111B97846FBF7D5FF114C0421206807
:10AC4400019004AA0DEB0100FFF755FF04AB314658
:10AC540018461022FEF7BCFE234602A953F8040F3F
:10AC640002901B798DF80C3004AB18460522FEF7D0
:10AC7400AFFE06AB03CB2860696008B070BD00BFAF
:10AC8400A6D6030070B50D4686B0064600B111B9CC
:10AC94007846FBF7A7FF0F4C54F8040B009002AA68
:10ACA40068460421FFF727FF02AB314618461022FD
:10ACB400FEF78EFE2068019002AB042218460DEBCD
:10ACC4000201FEF785FE9DF8173003F03F032B7059
:10ACD40006B070BDAFD6030030B50268037CD17AEC
:10ACE40087B000298DF80430836814BF082104213B
:10ACF40009330B44CDE90232436804930446C36824
:10AD04000593694601A801F019FED0B1237C012BFB
:10AD14000ED02568FEF79EF9286120680C30FEF7F6
:10AD240031F9054620B101F083FE284607B030BD55
:10AD34002168009800F03DFB009B09336361002506
:10AD4400F3E70425F1E7000008B500B14068054BBE
:10AD54001860FEF707F8FDF7B1FFBDE8084002F000
:10AD64007DBA00BF1C3B002008B5FEF71DF8BDE806
:10AD7400084002F0B1BA10B5044610B97846FBF7A2
:10AD840031FF236813B97846FBF72CFF23685B690E
:10AD940013B97846FBF726FF237C012B02D97846AA
:10ADA400FBF720FFE36813B97846FBF71BFF204647
:10ADB400BDE81040FFF790BFF0B50446C7B010B926
:10ADC4007846FBF70FFF636913B97846FBF70AFF70
:10ADD400236813B97846FBF705FF23685B6913B949
:10ADE4007846FBF7FFFE606900F040FB1E4B1B68D2
:10ADF4009B0705462ED51D4B1B68042B2ADD1C4BD7
:10AE04001E6805AB411E00F11C07184611F8012FFE
:10AE14004FEA121C02F00F0216F80CC083F800C0AF
:10AE2400B25C5A708F4203F10203EFD1002380F821
:10AE34003A3003F1804303F588330E4AD3F80435DE
:10AE440001920D4A029000920C494FF4947205202D
:10AE540000F0B0FC00232A46A168206800F06AFADA
:10AE640001F0C0FD47B0F0BD042E0020002E0020EC
:10AE7400082E00203AD70300C2D2030030D70300C3
:10AE84002DE9F0478846D4B092460546002800F0E4
:10AE9400058100F0EDFA0DF12C09814F421B294682
:10AEA400484611F0E0FF3B68990727D57D4B1B68A6
:10AEB400042B23DD44467C4B802C28BF80241E6851
:10AEC40013AB294605EB040C1846614503F1020354
:10AED40040F0A480002300F8143003F1804303F50C
:10AEE4008833724AD3F804350192714A0290009271
:10AEF400704940F24D12052000F05CFC002305ACC3
:10AF040000932A464B464146204600F0C9F90646BE
:10AF1400002840F0A6802378002B00F0A280E2688D
:10AF2400B2F1807F80F09D80E27A12B1022B00F0B2
:10AF3400988094F90A30002BC0F293803B6813F098
:10AF4400020F13AD22D0574B1B68042B1EDD404665
:10AF5400554B8028196828BF80202B46864203F170
:10AF6400020369D1002305F8163003F1804303F589
:10AF74008833514AD3F8043501924D4A0092029520
:10AF84004FF4AB724B49052000F014FC636913B90C
:10AF94007846FBF727FE4146204600F05FFA5FFA49
:10AFA40080F85346224641460DF13500FCF784FDF6
:10AFB400E16806462089FBF77FFE2946208907F0D1
:10AFC4001DFF00284DD1012003F04EF9002848D080
:10AFD400A37A012B45D92378012B3CD0374B1B682E
:10AFE400002B42D1A37A2C60013BA3724FF0FF33B4
:10AFF4006B60DF23EB6028460123C5F808802B74BF
:10B00400FFF76AFE002837D142460DF13501686921
:10B0140011F029FF2846FFF7CFFE22E011F8012B9B
:10B024004FEA121E02F00F0216F80EE003F802ECCB
:10B03400B25C03F8012C48E719F806204FEA121C09
:10B0440002F00F0211F80CC003F802CC8A5C03F87A
:10B05400012C013682E72946608807F0CFFE0028DC
:10B06400BCD0304654B0BDE8F087A27A618820890C
:10B0740098470028B6D1F4E73B689B07F1D5094B04
:10B084001B68012BEDDD0E4B0E4AD3F8043509493C
:10B0940000920220A72200F08DFBE2E70E26E0E7F3
:10B0A400042E0020002E0020082E0020B7D6030016
:10B0B400C2D2030030D70300C6D603001C3B0020D5
:10B0C40000100140D5D6030008B528B1012804D0EA
:10B0D4007846FBF787FD002008BD0320FCE730B568
:10B0E40089B0002304938DF81430036940691BBAB6
:10B0F400CDF815300B46144653F8072FCDF8192018
:10B104009A88ADF81D209B798DF81F300D466A464C
:10B11400113004A9FFF760FCAB1D0DF10600E21D20
:10B1240013F8011910F8014DAB4281EA040102F849
:10B13400011DF5D109B030BD2DE9F041D4B01D4653
:10B1440000238DF81730ADF83C300E93D31D0C93CB
:10B15400EB1D10935A9B43610E4606AF11462A46D7
:10B1640004460B97FFF7BBFF6B78DB09E3726B7840
:10B1740003F07F03A372EB78AA781B0243EA02432D
:10B184002A791343E3606B79A87940EA032020818C
:10B19400FEF7E8F9012866D1E27A002AA6F109034C
:10B1A40014BF0822042293425DD3E1682089FBF78F
:10B1B40065FD8046002856D1E37A9DF86C01002B8A
:10B1C40014BF08230423073E8DF84830F61A0C9B5D
:10B1D400B6B2ADF834601E441196FFF775FF3B46D6
:10B1E400014642462046FFF72AFC63690DF1170128
:10B1F40001330AA80A93FFF720FC9DF81730002BAF
:10B2040031D0EB79287A40EA03206080FEF7AAF96E
:10B214001D4B20701B689B0725D51C4B1B68032BFB
:10B2240021DDBDF834201A4B10991D68802A28BFEF
:10B23400802213AB56181C468E4203F1020317D129
:10B24400002304F8123003F1804303F58833114AD4
:10B25400D3F804350192104A00920294DF220F4978
:10B26400042000F0A7FA9DF8170054B0BDE8F0815F
:10B2740011F8010B070900F00F00EF5D03F8027CE1
:10B28400285C03F8010CD7E7042E0020002E0020D0
:10B29400082E00207CD70300C2D203006FD703001E
:10B2A4002DE9FF47894615461F469DF830A00646FE
:10B2B40018B112B10BB19A4202D17846FBF792FC55
:10B2C400A9F10903142B2FD82878C009FDF7CCFE67
:10B2D40000233061736195F80080CDE9023308F0F2
:10B2E4007F0803AA02A9404607F076FC029BCBB173
:10B2F400CDE9003A2A463B4649463046FFF71CFF53
:10B30400044608B1002010E0039B43B1CDE9003AA4
:10B314002A463B4649463046FFF70EFF40B9029B9A
:10B32400002BDED1052000E0092004B0BDE8F08741
:10B334002046FAE7F0B50C468FB016461F46054680
:10B3440010B97846FBF74EFC16B97846FBF74AFC71
:10B35400012F02D97846FBF745FC3846FFF7B4FEC7
:10B3640001AF3B46014600222846FFF768FBEB7A13
:10B37400002B14BF082304238DF834306B69A11CFF
:10B384000133CDE9053789B2F31D0022ADF8201051
:10B3940005A8194407930B93ADF8282009920C9142
:10B3A400FFF749FB324631462846FFF798FE0FB0B7
:10B3B400F0BD38B50D46044610B97846FBF712FCCB
:10B3C40015B97846FBF70EFC2889FEF7CBF801285F
:10B3D40002D07846FBF706FC95F90A30002B02DA16
:10B3E4007846FBF7FFFBEB68B3F1807F02D3784626
:10B3F400FBF7F8FB6B6913B97846FBF7F3FB2B6992
:10B4040003F00102237803F07F0343EAC21323709D
:10B414006A69127823F07F0302F07F0213432370DA
:10B424006378EA7A03F07F0343EAC213DBB2637002
:10B43400AA7A23F07F0302F07F0213436370EB6860
:10B4440023711A0CA2701A0AE2702B89A3711A0ACA
:10B4540062716B8823721A0AE27138BDC37A002BB9
:10B4640014BF082004200939081A704709387047A6
:10B4740001307047436849B9027880781A441B78D0
:10B48400C31A12F8010C1844C0B270475A185B5C16
:10B4940012F8010CC01AF7E738B50D46044610B986
:10B4A4007846FBF79FFB2378AB4202D87846FBF73C
:10B4B40099FB29462046FFF7DDFF40B163686278B7
:10B4C400585DA378013B1840A36802FB003038BDE7
:10B4D40038B50C46054610B97846FBF783FB2B7844
:10B4E400A34202D87846FBF77DFB21462846FFF7A6
:10B4F400C1FF18B16A68135D0133135538BD10B527
:10B50400044610B97846FBF76DFB002319462278F0
:10B514009A4200D810BD6268D1540133F7E710B5E0
:10B524004378044613B97846FBF75CFB2378012B78
:10B5340002D87846FBF756FBA36813B97846FBF7A5
:10B5440051FB636813B97846FBF74CFBA37813B13E
:10B554005A1E1A4202D07846FBF744FB2046BDE847
:10B564001040FFF7CCBF38B50D46044610B97846F5
:10B57400FBF738FB2378AB4202D87846FBF732FB63
:10B5840029462046BDE83840FFF774BF08B520B10E
:10B5940019B1FFF777FB002008BD0E20FCE713B5B7
:10B5A4000B4658B151B1002401220DF107018DF869
:10B5B4000740FFF7D5FA204602B010BD0E20FBE786
:10B5C40030B50C468BB00546E0B1D9B11031FFF768
:10B5D4002BFB0D4B03930D4B186804909B88ADF81F
:10B5E400143006AA042103A8FFF785FA0623009362
:10B5F4002846019404AB06AA1021FFF792FA002012
:10B604000BB030BD0E20FBE76E6B626B8FD703006F
:10B6140030B50C4687B00546F0B1E9B104210F4BB3
:10B6240001930DEB010002AAFFF765FA02AB18467D
:10B6340010222946FFF7FDF99DF816301B0203F48A
:10B644007C529DF8173013436FEA43436FEA534328
:10B654002380002007B030BD0E20FBE776746164C0
:10B6640038B50D46044600B111B97846FBF7BAFA6D
:10B67400AC421EBF23682B60256038BD38B50C462C
:10B68400054600B111B97846FBF7ACFA2B68A34222
:10B6940002D17846FBF7A6FA286840B92C602060EE
:10B6A40038BDA54202D17846FBF79CFA28460568C6
:10B6B400002DF6D12146BDE83840FFF7D1BF38B59B
:10B6C40005460C4601B110B97846FBF78BFA2B6896
:10B6D40083B1A34205D123682B600020206038BDCC
:10B6E40013461A6822B1A242FAD122681A60F4E71A
:10B6F400002CFAD00520F2E7F8B50E4617460446AA
:10B7040008B101B112B97846FBF76CFA2368B34269
:10B7140002D17846FBF766FA25685DB926602846AB
:10B724003560F8BD2C68A64202D17846FBF75AFA78
:10B734003CB1254631462846B8470028F2D00F20B0
:10B74400EFE728463146FFF78BFF2046E9E7000084
:10B7540037B506AC184654F8045B00920B46024613
:10B764000549002009F0A7F922462946002009F0DE
:10B7740085F803B030BD00BF96D70300034B1860B3
:10B78400034B1960034B1A60704700BF042E00205E
:10B79400002E00200C2E002010B4054C24681CB18F
:10B7A400A4465DF8044B60475DF8044B704700BF46
:10B7B4000C2E002030B585B008AC54F8045B03941B
:10B7C400CDE90054FFF7E8FF05B030BD03794279B5
:10B7D4009B1A00EB03307047431E9BB247F6FE6290
:10B7E400934208D849B14B8858400B8818420CBF83
:10B7F400012000207047002070470120704738B5B1
:10B80400830705460C4602D07846FBF7EBF9A408FB
:10B81400002355F82320013204D101339C42F8D887
:10B82400012038BD0020FCE7064B984210B50446C1
:10B8340003D303F58273984202D97846FBF7D2F911
:10B84400201F10BD2C3B00201FB50124CDE902218F
:10B8540001901A46694620468DF80040FDF7AAFD7E
:10B8640004B010BDF8B50C4D01460C48FCF7A2FD20
:10B874006E687EB100272846FEF72AF8044610B900
:10B884007846FBF7AFF923682760D3E90220904795
:10B89400A642F0D1F8BD00BF343C0020203B00207C
:10B8A40038B503884A6803F18043013B9C00136860
:10B8B400033323F00303A3420D4605D009238B6011
:10B8C4006B6800201C6038BD00238B601268011D6A
:10B8D400286811F0C8FAF3E713B582B2002401A96D
:10B8E40005480194FCF782FC18B90198043002B0B1
:10B8F40010BD2046FBE700BF203B002008B5FFF742
:10B9040093FFBDE80840014602880148FCF7BFBC2C
:10B91400203B0020014B1868FEF748BF3C3C002048
:10B92400038810B5044613B97846FBF75BF9208801
:10B93400074B04EB800030EA030203D06288B2F5BF
:10B94400FE4F04D11C4004F580542078204410BDDF
:10B9540000F0FFFF70B50468237805461C440021FD
:10B964004FF6FF762868FFF731FF844202D26388DE
:10B97400B34201D1084670BD2046FFF7D1FF2146EE
:10B984000446EFE72DE9F04FDFF8A89285B04F4663
:10B994009F4B99F800B01B78022B14D1BBF1030F15
:10B9A400FCD8DFE81BF00400350010005801002328
:10B9B400694698480093FCF79BFC014638B1964BC6
:10B9C4001B6803B19847012005B0BDE8F08F009DC6
:10B9D400924B2E7A2A1D1A6001239E423B70D7D8BF
:10B9E4006C68E068FFF7F2FE6369C01AA368C01AC6
:10B9F4000EB9298A89008142CADB6368002BC7D04B
:10BA04000323834A237020461370FCF7C9FFBFE762
:10BA1400824B1C682379042B00F2B980DFE813F011
:10BA240005008100A400D0000C012368DD682846CD
:10BA3400FFF7CCFE2B78E2890146E81800F03CFFC2
:10BA44002568AB6882465BB9EE683046FFF7BEFEF8
:10BA54003378014647F6FF72F01800F02DFFA86016
:10BA64002268A1899668DFF8C8B126F47F6525F0BD
:10BA74000F0505F58055A5EB06088900884531D9E1
:10BA840075182146002331F80C2F30469200FFF739
:10BA9400DBFE10B17846FBF7A5F8614B614904223F
:10BAA4002846FFF7D1FE10B17846FBF79BF8BAF1B0
:10BAB400000F10D02268BAF80010536803EB81031A
:10BAC40053605949564B04225046FFF7BDFE10B14E
