:020000022000DC
:1060000000F000206D630200556302005763020038
:10601000596302005B6302005D6302000000000040
:106020000000000000000000000000005F630200AC
:106030006163020000000000636302006563020008
:106040006763020067630200A9E9020031A7030049
:106050006763020067630200676302006763020010
:1060600067630200676302002D7503006763020027
:1060700067630200676302006763020067630200F0
:1060800067630200BDEF0300C9AC02006763020052
:106090008DF0030067630200099F0300676302003D
:1060A00067630200676302006763020067630200C0
:1060B0006763020067630200000000000000000048
:1060C00067630200676302006763020067630200A0
:1060D000676302006763020067630200000000005C
:1060E00000000000000000000000000000000000B0
:1060F00000000000000000000000000000000000A0
:10610000000000000000000000000000000000008F
:10611000000000000000000000000000000000007F
:10612000000000000000000000000000000000006F
:10613000000000000000000000000000000000005F
:10614000000000000000000000000000000000004F
:10615000000000000000000000000000000000003F
:10616000000000000000000000000000000000002F
:10617000000000000000000000000000000000001F
:10618000000000000000000000000000000000000F
:1061900000000000000000000000000000000000FF
:1061A00000000000000000000000000000000000EF
:1061B00000000000000000000000000000000000DF
:1061C00000000000000000000000000000000000CF
:1061D00000000000000000000000000000000000BF
:1061E00000000000000000000000000000000000AF
:1061F000000000000000000000000000000000009F
:10620000344935480A1A02D0072291438D46334952
:1062100033480A1A06D00722914381F309880222E3
:1062200082F314882F483049304A00F042F8304851
:106230003049314A00F03DF830483149314A00F0E8
:1062400038F831483149324A00F033F831483249A0
:10625000324A00F02EF832483249334A00F029F829
:1062600032483349334A00F024F833483349002296
:1062700000F02AF832483349002200F025F832486D
:106280003249091A082902DB0022026041601F48D6
:106290001F49884205D00268043003B4904703BC0C
:1062A000F7E700208646EC4600200021284A904768
:1062B000FEE7884207D0521A05D0037801300B70F0
:1062C0000131013AF9D17047884202D002700130A1
:1062D000FAE7704700F0002000E8002000F00020FE
:1062E00000F00020A8150400A02D0020B82E0020EA
:1062F000A4630200A4630200AAF80300A815040026
:10630000A02D0020A02D0020D4F90300D4F9030013
:10631000D4F90300D4F90300D4F90300D4F903003D
:10632000D4F90300D4F90300A6150400C016040034
:10633000B82E0020B82E0020B82E0020486500207E
:106340004865002048650020486500204869002015
:106350006D650200FEE7FEE7FEE7FEE7FEE7FEE70B
:10636000FEE7FEE7FEE7FEE7704700BF094880470B
:1063700009484FF007018843854608488047084888
:10638000016841F470010160BFF34F8FBFF36F8F5D
:10639000FFF736BF6963020000F0002009A1030087
:0463A00088ED00E0A4
:1063A40041DF704703781C2B07B518D10D4B1B68D0
:1063B4005B040DD50C4B1B68032B09DD0B4B0C4AFE
:1063C400D3F804350B4900920420942205F036FCDE
:1063D40000F0DAFA03B05DF804EB0AF021BA03B076
:1063E4005DF804FB1C2E0020182E00200010014034
:1063F40017FA030010FA030000F0FABA0B4B1B68FB
:106404005B0407B50DD50A4B1B68032B09DD094B4B
:10641400094AD3F80435094900920420E72205F01B
:106424000DFC03B05DF804EB00F0BABA1C2E00209A
:10643400182E002000100140D5FA030010FA0300C2
:106444007FB50378093B0446042B58D8DFE803F0F2
:106454006C6F720303000079022804F1050550D023
:10646400042857D1B4F81320B4F809309A424FD114
:10647400D4F80F20D4F805309A4249D1D4F8153015
:10648400D4F80B2093422CBF00230123002B41D0CE
:1064940003A902A80AF0D4F918B12A4A612113F019
:1064A4006CFF294A029B294E1344294A5B089342F4
:1064B40024BF03F6FF731E40264B1B683CBF02F645
:1064C400FF7216405B040ED5234B1B68032B0ADDB9
:1064D400224B234AD3F804352249009201967222B2
:1064E400042005F0ABFB3246294620790CF070FB02
:1064F40018B1144A762113F040FF00F06FFA04B08B
:1065040070BDE27B63799A4202D1237CA279B9E718
:106514000023BBE729460CF0A7FB0028EFD0094A6B
:106524007C2113F02AFFEAE700F048FAE7E700F0DD
:1065340057FAE4E700790CF0F9FB0028DFD0014AB0
:106544008921EEE7ECF903000060020000F0FFFF90
:10655400C01604001C2E0020182E0020001001403C
:10656400AAFA030010FA030000B58DB018F0DEFE9D
:1065740018B15E4ACD2113F000FF5D4E5D4A4CF226
:106584008700042105F03EFB336858040DD55A4BAF
:106594001B68032B09DD594B594AD3F80435594973
:1065A40000920420D12205F049FB00F0E9F900F043
:1065B40065FB0021242203A819F0EEF801238DF8CD
:1065C4000C3007238DF80F3006238DF814304E4914
:1065D4004E4B079303A80AF0DBF818B1434AAA21EB
:1065E40013F0CBFE00200AF015F818B13F4AAD2194
:1065F40013F0C3FE4648474B036003F0B9FA464A1A
:106604004648012118F0ECFE08B113F0A9FE3368E6
:1066140059040DD5384B1B68032B09DD374B404A11
:10662400D3F80435374900920420DD2205F006FB37
:10663400354B1B78002B55D13A4D0FCD03AC0FC40D
:1066440095E8030084E8030003A800F04FF918B1AB
:10665400264AF92113F091FE00F096F933685A04A2
:106664000ED5254B1B68032B0ADD244B2E4AD3F889
:10667400043524490092042040F2011205F0DEFAA8
:1066840009F0E3FF20B1194A4FF4817113F075FE4C
:1066940000F0E6FB00F0B6F90AF0B4F820B1134AB2
:1066A40040F2071113F069FE002241F69A111F48C7
:1066B40018F0A8FE08B113F053FE33685B040ED53E
:1066C4000D4B1B68032B0ADD0C4B194AD3F8043518
:1066D4000C490092042040F20B1205F0AFFAFFF7C8
:1066E4005FFEFCE700F05CF9B8E700BFECF90300DB
:1066F4001C2E0020DDBB0200182E002000100140DB
:1067040034FA030010FA0300B82E0020A963020033
:10671400BC2E002045640200FD63020030FA030031
:106724005CFA0300D4F9030076FA0300C82E0020B3
:1067340094FA03001FB5254C217819B1012803D020
:1067440003283CD004B010BD002302A9029313F027
:106754009DFA08B113F004FE02A813F0E9FA08B197
:1067640013F0FEFD012303A90DF1060003930FF0BE
:10677400EDFD08B113F0F4FDBDF806000FF066FB63
:106784000DF105010FF070FC08B113F0E9FD0AF0FA
:1067940023FE9DF8051000200BF0BCF910B17846DB
:1067A40000F028FB03F088F908B113F0D9FD0023A9
:1067B4002370074B1B68002BC4D09847C2E713F023
:1067C4001FFB0028BED013F0CBFDBBE7EA2E002050
:1067D400EC2E002008B503781C2B0CD1064B1B783B
:1067E4004BB113F04BFB08B113F0BAFD0348BDE8FD
:1067F400084003F0BFB908BDEA2E0020A02D0020F8
:1068040010B50749074814F09BFB024638B90649FE
:10681400064809690323BDE8104014F0AABB10BD63
:10682400042F002070320020EC2E00203C31002088
:106834000378023B10B5082B4AD8DFE803F01E05A5
:106844001249493849493F00224B5B68002B3FD02D
:10685400007A00283CD0204A0121BDE81040117084
:1068640018471C4B9B68002B32D01B4A117879B314
:106874000021BDE8104011701847184B1A784AB926
:10688400144BDB6813B114490A709847BDE81040F3
:10689400FFF7B6BF124B134801221A7003F068F9D0
:1068A40003F04EF9A0B1BDE8104013F059BD094BF7
:1068B4000D485969102214F0D9FBF3E7D0E902100E
:1068C40009F0F0FE08B113F04BFD044B01221A70DD
:1068D40010BD00BFEC2E0020E82E0020E92E002081
:1068E400EA2E0020A02D00203C31002070B51C4A67
:1068F4001C4E5168044686B0106803AB03C311896B
:10690400927A19809A700FCC35460FC594E803002B
:1069140085E80300736903B3134B0093134A1449C6
:10692400144803AB14F0D8FAA8B9134815F088FB3F
:106934000146104814F0F0FA68B910480BF0EEFA6A
:1069440048B90E480BF01CFB01460A4814F0E4FA5F
:1069540008B9FFF755FF06B070BD0720FBE700BF7D
:1069640014FB0300EC2E002035680200042F0020E5
:10697400703200203C310020242F0020EC30002015
:10698400012013F041BD000008B513F01BFD0020E9
:1069940013F000FD014B01221A7008BDB032002033
:1069A40008B5054B00221A7013F00CFD0120BDE858
:1069B400084013F0EFBC00BFB032002008B5064B0E
:1069C40000221A7013F0FEFC022013F0E3FC0320F3
:1069D400BDE8084013F0DEBCB03200207047000070
:1069E400024B00221A7013F0EDBC00BFB03200203D
:1069F400034B1B7813B1002013F0F4BC704700BFA5
:106A0400B0320020F0B50446CFB038B12B4D2B681E
:106A14005A0403D52A4E3368032B01DC4FB0F0BD72
:106A2400284B1F680DAB411E00F10F0C184611F8DE
:106A3400012F4FEA121E02F00F0217F80EE083F83E
:106A440000E0BA5C5A708C4503F10203EFD10023D5
:106A54001D4F80F820301D4AD7F8043501921C4A96
:106A6400029000921B494122042005F0E7F82B68AC
:106A74005B04D3D53368032BD0DDE27BD7F8043530
:106A84000B92A27B0A92627B0992227B0892E27AA1
:106A94000792A27A0692627A0592227A0492E28896
:106AA4000392A2880292226801920B4A0092094939
:106AB4004622042005F0C2F8B0E700BF1C2E0020D7
:106AC400182E0020202E0020001001405BFB030044
:106AD4006DFB03004AFB030075FB030072DF704784
:106AE40073DF704774DF70472DE9F04388462F4900
:106AF4002F4C0B782F4D91462F4A0746C3EB43107A
:106B0400002602440133A3B003F00103C4F8066075
:106B1400A2601F2205440B70A280A28131463C2250
:106B240004A8E681256018F037FE062301AA8DF833
:106B340013300E9201233C22314613A88DF8023003
:106B4400ADF820308DF83C30ADF80070CDF824D08D
:106B5400ADF80470ADF80890CDF80C8018F01CFE68
:106B64000223221D294604A88DF84C3012F05EFE43
:106B740008B113F0F5FB114AA16813A812F056FEF0
:106B840008B113F0EDFB0E4A09490E48FFF7A6FFC2
:106B9400082804D1002206490A48FFF79FFF08B1DC
:106BA40013F0DEFB23B0BDE8F08300BFB132002058
:106BB400F0320020B232002000330020FC320020EA
:106BC400B02D0020AC2D0020B0F5202F0AD20A23CE
:106BD400B0FBF3F30138082898BF0123034A9381DB
:106BE400916070474FF6FF73F8E700BFB02D0020A7
:106BF40008B5064B01211878FFF772FF08B113F0AE
:106C0400AFFB0020BDE8084003F072BDAC2D0020AE
:106C140008B5054B1878FFF765FF18B1BDE80840C3
:106C240013F09EBB08BD00BFAC2D00207ADF704777
:106C34007CDF704702F0A0BF1FB511230C220D4961
:106C44008DF8043001A8FFF7F3FF08B113F088FBB7
:106C54000023ADF80C30084B029302A84FF4C8731C
:106C6400ADF80E30FFF7E2FF08B113F079FB05B081
:106C74005DF804FBB5FB03007800C80007B513F00A
:106C8400BFF808B113F06CFB002301A901200193A4
:106C940012F0FCFF08B113F063FB01A813F048F8ED
:106CA40008B113F05DFBFFF7C7FF03B05DF804FB09
:106CB4000620704730B5454B41F201051B68A842D8
:106CC40087B0044603F4804354D013D801282ED04F
:106CD400002B3CD03E4B1B68002B38DD3D4B3E4A1D
:106CE400D3F80435019100923C497B22012004F041
:106CF400A5FF2CE044F2010084424CD044F202008F
:106D04008442E5D11BB3324B1B68002B1FDD314B92
:106D14001088D3F8043503905268CDE90112304A43
:106D240000922E496C22012004F088FF0FE073B119
:106D3400274B1B68002B0ADD264BD3F80435CDE91D
:106D44000112284A25490092602204F077FF4FF08F
:106D5400A0434FF4F012C3F81825C3F80C25EFF341
:106D6400108372B64DF6AD6C1F4A1378002B2AD1EE
:106D740007B030BD002BEAD0154B1B68002BE6DDB5
:106D8400144BD3F80435CDE90112184A0092134983
:106D940063220120D9E7002BD9D00D4B1B68002BAF
:106DA400D5DD0C4B1068D3F8043504905068CDE958
:106DB4000210926801920E4A00920849772201203B
:106DC40004F03CFFC3E730BFCFE700BF1C2E002018
:106DD400182E0020001001407AFC0300EDFB030094
:106DE4003AFC0300FEFB0300C82D002018FC03003E
:106DF40059FC030007B50023ADF800300146054BEC
:106E040001936A4644F20200FFF754FF03B05DF8B1
:106E140004FB00BF660A0400044B00F1100250F8A2
:106E2400041B43F8041B9042F9D170473E33002001
:106E3400094A0A4B03CA596018603C3203CADA791A
:106E4400D960042161F307129860DA711A7A022179
:106E540061F387121A727047600000103E330020FD
:106E6400004870473E330020002206491346013291
:106E7400202A4B804B6001F8083BF8D1024A13608A
:106E8400704700BF50330020503400200C4BF0B545
:106E94001B680C4C064620227BB1013B14F83300DE
:106EA40050B104EBC3056F88B74202D16D688D42BF
:106EB40002D0013AF0D11046F0BD1F23EEE700BF27
:106EC4005034002050330020084A30B51368084C71
:106ED40004EBC3056960012104F833100B44202B33
:106EE40008BF00236880136030BD00BF5034002009
:106EF40050330020C0F30C038B42084438BFA0F584
:106F04000050C01A704700000D4B0E4AF0B51E68C1
:106F140000218E4212D0156800230AE052F8044C76
:106F240004EBC30714F83340844201D17868F0BD00
:106F340001339D42F2D101310832EAE70020F6E73D
:106F4400543400205C34002000B58DB040B99A1C44
:106F540006D0012201A88DF80420029301F07AF9E9
:106F6400034B186803F0D6FD0DB05DF804FB00BFB9
:106F740060340020037810B5044613B97846FFF74F
:106F840039FFE188A069FFF7B5FFE1690A060B0A3A
:106F9400101843F1000110BD037810B5044613B96D
:106FA4007846FFF727FF607A431C01209840013898
:106FB40010BD0000F8B5037806460D4613B97846AF
:106FC400FFF718FF0F4AB18A002314461801875AA5
:106FD4008F4213D1002313520B4A1368581C03F039
:106FE40007031B011060E15205B175781C4430465B
:106FF400A570FFF7BFFFC4E90201F8BD0133082BF8
:10700400E4D1E9E768340020E83400202DE9F041B8
:107014000E468EB015461C46074610B97846FFF753
:10702400E9FE16B97846FFF7E5FE636AA2780233F3
:107034000593E378A2F10800002B14BF012102217B
:107044000DF1040842424241434604F10C0003F0AE
:10705400AAFEA3788DF83430237BADF82050022BA0
:1070640016FA85F5CDE906870B960C950FD12369A1
:1070740013B97846FFF7BEFE23690993102305A8C8
:10708400ADF8283003F08BFE0EB0BDE8F08100238C
:10709400F5E70000B2F5C07F2DE9F84F8346894635
:1070A400904602D97846FFF7A5FE284B00269A465B
:1070B40093F848705FB94046702407F0F8FB04FB6E
:1070C40006A4E06648B900242046BDE8F88F0136DE
:1070D400042E03F17003EBD1F5E7DC46BCE80F00A6
:1070E40025460FC5BCE80F000FC59CE80F00B9F199
:1070F400010F85E80F00E764A4F84A801BD1144B04
:10710400A4F852701B7D84F8513084F85070DBF879
:10711400283063656FF00103A3620E4BA4F8587026
:10712400A3632464012002F0BBF8702303FB06A6CA
:1071340086F84890C8E76FF00103A362064BA36585
:1071440084F868702466054BEAE700BF0435002024
:10715400EC340020B17702009D7C0200A977020084
:1071640010B50446C06E07F0A4FB04F1300002F031
:1071740031FF94F84830022B03D104F1500002F09F
:1071840029FF20467022002118F006FB002084F815
:107194004800BDE8104002F083B810B590F84830BC
:1071A400012B8CB0044602D07846FFF723FE01235E
:1071B4008DF8043001A8636D029301F04BF820466A
:1071C400FFF7CEFF0CB010BD10B50446808A02F064
:1071D40023FB01281CD1237BD3B194F91620002A68
:1071E40018DBE27D5AB1022B12D094F90330002B44
:1071F40010DBA378002B0CBF0020072010BDE27821
:107204000AB9012B06D1237833B9A378042BF2E70A
:107214001020F3E70720F1E70020EFE71FB5002275
:107224000B468DF80F20E0B10230086018460DF1CE
:107234000F0103F0B6FD9DF80F3093B10B4B1B68A3
:107244005B070ED50A4B1B68032B0ADD094B0A4A60
:10725400D3F8043509490092042040F2374204F07F
:10726400EDFC9DF80F0005B05DF804FB1C2E00201A
:10727400182E0020001001400FFD030003FD030041
:1072840070B5D0E906128CB00446808A05F040FC43
:107294000546A0B12C22002101A8A68AE46918F0B1
:1072A4007BFA0F238DF804304FF0000364F30003DE
:1072B40001A8ADF808608DF80A3000F0CBFF28462D
:1072C4000CB070BD2DE9F04F99461378D2F81880B0
:1072D400F3B007468A46144623B1D1884046FFF7E7
:1072E40009FE9061E378A278002BA2F1080003ADB7
:1072F40014BF0121022104F10C0642422B464241F3
:10730400304603F050FDA278C4F81880CDE9085740
:107314001FFA8AF5AB1A9BB21F44ADF82830E37804
:107324000E974FF0000812AF0D978DF83C20ADF882
:107334003080002B5BD04FF0100B04F1240A237B28
:10734400C4F82480022B02BF2369ADF830B00B933C
:10735400206A217952460FF027FB606AE0B9237B4B
:10736400022B05D13146E0890FF0E0FB0028E6D17D
:107374002E4B1B685B0737D52D4B1B68052B33DD64
:107384002C4B2D4AD3F804352C490092062040F2A8
:107394000E7204F053FC27E007A9FFF73FFF002813
:1073A400D6D02046FFF76CFFF0B9A2780B908DF889
:1073B4001C0096E80300A38AADF82A30AD1A0CAB82
:1073C40001228DF8282083E80300A37D8DF8403046
:1073D400236A0E9307A8636A0897ADF824500F93A5
:1073E400CDF8449000F036FF73B0BDE8F08F227BF7
:1073F400012ABDD1A046E089B4F814A048F8243F7E
:1074040041460FF013FB07A9606AFFF707FF002846
:10741400C7D16062414650460FF008FB07A9606A75
:10742400FFF7FCFE0028A3D0BBE700BF1C2E002002
:10743400182E002000100140B5FD030003FD0300D9
:10744400C37D0A7830B56BB3C37822F07F0203F0B2
:107454007F031A430A700B78027803F07F0343EA30
:10746400C2130B700378E3B18378083B5A425A4144
:107474004B7803F07F0343EAC2134B70C58823F0B3
:107484007F03C5F3861423434B70047AC4F3C1020B
:1074940042EA85028A70437A03F01F0343EA4413E5
:1074A400CB7030BDC47822F0400343EA8413DBB2CE
:1074B4000B70027923F03F0302F03F0213430B7079
:1074C400C9E72DE9F04F044689B00F4609B10023FE
:1074D4000B6004F10C0394F8505001934FF0010831
:1074E4004FF0000B627AAA4203D2002009B0BDE833
:1074F400F08FE16C08FA05F30B4259D1E37D257254
:10750400002B0CBF0C260826954206FB05FA2378AF
:1075140008BFB4F84A608DF818B008BFA6EB0A0695
:10752400002B14BF4FF004094FF0010906EB0903C7
:107534000493019B0293A36A039302A8E36A05934D
:1075440003F0CDFD0028D1D1079B994445B994F8A7
:1075540053302BB9A36984F85380C3F30C03E3803D
:10756400E37D8BB994F8523073B915B17846FFF7BF
:1075740041FCB4F84A10A2788A1AE16E2346084600
:10758400FFF744FD84F8528007992046FFF758FF1F
:10759400E16E32465144484618F0D5F802A803F08B
:1075A400BFFD17B13B6801333B606B1C84F850305E
:1075B4000135EDB296E7000038B590F84830012B5C
:1075C400044602D07846FFF715FC02F043FD237B06
:1075D400074A012B05BFD2E90315A37DD16805FB3A
:1075E4000311014404F13000BDE8384002F009BD44
:1075F400EC340020F0B5C37D16468278002B32446B
:1076040014BF4FF480734FF4C0739342C7B00F4656
:107614006BD3394B002493F84810012907D19D8A74
:10762400818A8D4203D1DD89C1898D425FD00134C5
:10763400042C03F17003EED10121FFF72BFD054665
:1076440000283BD032463946C06E18F07CF800233F
:1076540004A928460493FFF734FF30F004040646D7
:107664003ED1049B13B12846FFF7A6FF234B1B68AA
:1076740013F004033DD0224B1B68032B1EDDB5F829
:107684004A00204B802805AA1F6828BF80200023B9
:107694001646834202F1020213D1002206F8132097
:1076A400194B1A4AD3F804350192194A00920296EA
:1076B40040F271521749042004F0C0FA204647B042
:1076C400F0BDE96EC95C4FEA111C01F00F0117F817
:1076D4000CC002F802CC795C02F8011C0133D8E733
:1076E4002846FFF73DFD3446E8E70924E6E7082489
:1076F400E4E71C46E2E700BF043500201C2E00200E
:10770400182E0020202E002000100140C7FC03008A
:107714006DFB030003FD030070B50D4690B00446F5
:1077240010B97846FFF766FB94F84830022B03D172
:1077340000212046FFF73EFC2C22002105A8666D9F
:1077440018F02AF8102305A88DF8143006968DF841
:107754001C5000F07FFD2046FFF702FD0C4B1B6818
:107764005B0712D50B4B1B68032B0EDD0A4B0B4931
:10777400D3F80435029594F848200192084A0092FF
:10778400042040F22E2204F059FA10B070BD00BF5C
:107794001C2E0020182E00200010014003FD0300C1
:1077A400A4FC030008460021FFF7B6BF91F8483057
:1077B400012B10B50C4602D07846FFF71BFB94F85A
:1077C40051305BB1013B84F85130002384F85030D0
:1077D400084BBDE81040186803F09CB9217B0129CF
:1077E400204603D1BDE81040FFF796BFBDE8104026
:1077F400FFF7D3BC603400202DE9F04106468EB07B
:1078040010460F4615469846FFF73AFD002853D117
:10781400EC78002C40F08180062F4DD137787378B6
:10782400BA0102F4FE5242EA93024C4B1C4693F80E
:107834004810012928D1B3F814C0E9898C4523D113
:10784400D988914220D1B3F858C0A98ABCF1000F5D
:1078540001D08C4518D117F0800FD6F802204FF0D4
:1078640070032CD003FB0043A3F8581013BA702202
:1078740002FB0044E56C1D43E564002B3AD103216F
:107884002046FFF749FF17E00130042803F1700395
:10789400CDD1334B1B685B070ED5324B1B68012BD4
:1078A4000ADD314B314AD3F80435314900920220C4
:1078B40040F2846204F0C2F90EB0BDE8F08103FB2B
:1078C4000043DD898D42D1D0254B1B685A07F3D57F
:1078D400244B1B68012BEFDD234B264AD3F80435D8
:1078E4000092CDE9015140F28C622149022004F05A
:1078F400A5F9E1E72046FFF74FFB854203D1204677
:10790400FFF74BFCD8E7002184F850102046FFF71E
:10791400D8FD2046FFF750FECEE72046FFF7F4FAE5
:1079240003460028C8D005F10C012A6A0B9203C94A
:10793400AA8AADF8222009AA82E80300AA7D8DF85C
:1079440030202A788DF82020EA6A8DF81440CDE999
:1079540006670D92414605A89847ADE70435002017
:107964001C2E0020182E00200010014022FD0300D0
:1079740003FD030050FD03002DE9F0418378904698
:107984001344C27D002A14BF0B220F22934286B0F7
:1079940004460F462FD8024612F80C1B0092002909
:1079A40014BF042501252B440293836A0193C36AFF
:1079B4000393684600238DF8103003F090FB0646CD
:1079C40070B9059920460D44FFF73AFDE37D5BB19C
:1079D40042463946284617F0B6FE684603F0A0FB37
:1079E400304606B0BDE8F081234642462946384673
:1079F400FFF70CFBF1E70926F2E7000010B54FF49E
:107A0400E0720021134817F0C7FE002405F0F0F8D7
:107A1400114B12481C602146802217F0BDFE104B0A
:107A24001049114A11489C75C3E9001210494CF2DF
:107A34005032C3E902211A6140F604029A8203F02B
:107A44004BF80C4B18600C4B0C481C60BDE8104004
:107A540005F0B2B904350020E83400206834002071
:107A6400EC34002080969800F049020095810200D1
:107A740020A1070060340020543400204D6F020020
:107A840005F03EB830B504468DB000286BD00369CC
:107A9400002B68D0C369002B65D08569002D62D0A6
:107AA4005A788DF804201A780993838A82F00102A7
:107AB4000B2B8DF80320027B09D90121022A8DF8B2
:107AC400001001D1294A927D5AB904220AE0C17AF0
:107AD4000029F2D1012A0CBF012200228DF80020D6
:107AE4003AD1082213448DF802200B330C22B3FB45
:107AF400F2F3013B8DF8093000238DF8083094E847
:107B0400030000238DF8173003AB83E803002389B7
:107B1400ADF81430A37A8DF81630236A0A93204600
:107B2400DF2308950B930FF0B3F828B12378012BCA
:107B340014BFFF2320230B9368462569A48AFFF70B
:107B440043FB38B99DF800302246294668463BB1CC
:107B5400FFF750FD0DB030BD04238DF80230CEE7A1
:107B6400FFF70AFFF6E70E20F4E700BFEC3400202D
:107B7400F0B503468DB00F46002843D04568002D6C
:107B840040D08669002E3DD0846802788DF80320A9
:107B94000B2C4FF00002099294BF027B012202F0E9
:107BA400010100208DF800108DF8020032B1E11DB2
:107BB400C90801398DF809108DF8080003F1100186
:107BC40003C901228DF8172003AA82E80300DA8989
:107BD400ADF814201A7F1B6A089668468DF81620A3
:107BE400CDE90A73FFF7F0FA38B99DF80030224660
:107BF400294668461BB1FFF7FDFC0DB0F0BDFFF749
:107C0400BBFEFAE70E20F8E730B5047B012C8DB0FB
:107C14004FF000033CD1C288CDF8063095008DF8B2
:107C240001500D0E8DF802500D0C49BAADF8041038
:107C340041788DF803508D1E69426941C2F3861262
:107C440042EAC1128DF80A3008938DF80C308DF891
:107C54001830C3898DF80020ADF81A300622C36AA3
:107C640005920B93828A837DADF81E20026A8DF8FB
:107C74001C40CDF810D009920BB1064B5B7D8DF8FA
:107C840028306FF0010103A8FFF772FF0DB030BD7B
:107C94001846FBE7EC34002091F84830022B10B56D
:107CA4000C4602D07846FFF7A5F8022384F8683022
:107CB40094F84830022B06D1E16C2046FFF7A4FF6C
:107CC40008B984F8680010BD2DE9F04F0C469FB048
:107CD40090461F460546002800F09381002A00F0D4
:107CE400908121B9092630461FB0BDE8F08F1346B4
:107CF40009AE02F1180C18685968324603C20833F9
:107D040063451646F7D12B78002059B2CA0F814239
:107D14008DF81820B4BF0422012294428DF8190072
:107D2400E0D39DF82F60EEB103F07F0381428DF81C
:107D34001B308DF81A002EDA6A78AB78920102F4BF
:107D4400FE5242EA9302ADF81E20DB00EA7803F00B
:107D5400180343EA521302F01F028DF820308DF805
:107D6400212018E0C3F38010002903F03F038DF8AD
:107D74001B008DF81C3008DA95F90130002BB4BFD4
:107D8400082304238DF81A30D6E704231A449442B6
:107D94008DF81A30A6D300230F933B78032B02D916
:107DA4007846FFF727F83A78974B06A853F822301D
:107DB4001193FFF709FA0646002894D1D8E9031273
:107DC400B8F8080004F0E0FE00288CD104A9B8F843
:107DD4000200CDE904660EF0A9FE38B19DF8193011
:107DE40043F001038DF81930059B0A939DF819306F
:107DF400002B3FF478AF9DF81820002A00F0EF80A4
:107E0400DFF80CB20023DA469AF84820022A3FD061
:107E14000133042B0AF1700AF6D19DF8183013B916
:107E24007846FEF7E7FF06A8FFF7A4F8774ABDF8FF
:107E34002CE04FF0000A9446138873453DD1D2E9F3
:107E44000289494508BF404537D106AD0FCD12AC74
:107E54000FC40FCD0FC495E80F000CEB0A1A84E889
:107E64000F009AF802308DF84930002B3FF43BAFF5
:107E740012A8FFF791F8014612A8FFF7C5FE9AF879
:107E84000230DC077FF52FAF06A8FFF7F9F92AE7E0
:107E9400BAF81410BDF82C209142B9D106A8039366
:107EA400FFF768F8804650468946FFF763F889452E
:107EB40008BF8045039BABD215E70AF1010ABAF16A
:107EC400080F02F11002B7D100239BF84820022AC0
:107ED4001AD1BBF81420724516D14D4A4FF0700BDD
:107EE40006A80BFB032BFFF745F880465846894646
:107EF400FFF740F8494508BF404580F095800521CB
:107F04005846FFF709FC04E00133042B0BF1700B16
:107F1400DBD19DF82F209DF82130002A14BF4FF0AB
:107F240008084FF00C0803FB088814BF4FF4807353
:107F34004FF4C073984517D9364B1B6858077FF523
:107F4400D2AE354B1B68002B7FF7CDAE334B344A92
:107F5400D3F8043533490092CDF8048040F29232CC
:107F6400012003F06BFEBEE6BDF81E100C98FEF770
:107F7400C1FF0D9A0146BDF82C0004F005FE00284F
:107F84007FF4B1AE4246022106A8FFF783F8834688
:107F9400002849D1014606A8FFF736FE2C2259468F
:107FA40012A817F0F9FB10238DF8483012A8022309
:107FB4008DF8503000F04EF995E6002B08BF4FF0D5
:107FC4000C0A544500F09A8004215846FFF7A4FB9C
:107FD400002688E63B465A46FFF774F9C4E0DA0700
:107FE4007FF581AE9DF82F30681C611E23B13B469E
:107FF40006AAFFF701FC76E63B4606AAFFF762F9FC
:1080040071E60E266FE600BF94FC0300683400207E
:10801400043500201C2E0020182E002000100140E2
:1080240091FD030003FD0300534B1B685B0711D54F
:10803400524B1B68032B0DDD514B9DF82020D3F8C8
:10804400043501924F4A00924F494FF47172042053
:1080540003F0F4FD9BF84830022B02D07846FEF77B
:10806400C9FEDFF82881D8F8009001F0F3FF09EB8E
:1080740000010BF1300001F0C4FF9BF80C30012B20
:108084001AD19BF86830BBB99BF84830022B02D058
:108094007846FEF7AFFED8E9013298F8151002FBD6
:1080A400013801F0D7FF00EB08010BF1500001F09B
:1080B400A8FF01238BF868309DF82010DBF84C30C2
:1080C40001228A4013EA02087FF40DAE1343CBF871
:1080D4004C309DF82F309BF80920002B14BF4FF033
:1080E40008094FF00C098A42A4F1040409FB01F9C0
:1080F4007FF463AF09EB0403ABF84A30DBF81820D4
:108104000C9B9A420BD20DF1240EBEE80F000BF12A
:108114000C0CACE80F009EE803008CE80300DBF8CD
:108124006C002246291D484417F00DFB5846DBF825
:108134004C40FEF731FF84427FF4D5ADDBF84C10A0
:108144005846FFF761FD9BF80130D9070CD59BF821
:108154001730DBF86C00BBF84A10002B3FF43AAF41
:108164003B465A46FFF748FB58460121FEF722FFDB
:108174005846FEF7F5FF2BE71C2E0020182E002092
:1081840000100140A5FD030003FD0300EC340020B2
:10819400F7B5184C00262546374695F84830012B8C
:1081A4000BD101A928460197FFF78BF9042801D0C8
:1081B400019B13B12846FFF7FFF90136042E05F1A0
:1081C4007005EAD1002594F84830022B0AD194F8BE
:1081D4006830022B06D1E16C2046FFF715FD08B983
:1081E40084F868000135042D04F17004EBD10120FA
:1081F40003B0F0BD043500202DE9F8438846074656
:10820400F0B1124E3468CCB9254600F10409454555
:1082140007D10F4BC3E90075012333602046BDE845
:10822400F88359F835305BB117F83500030609D4E3
:1082340050B1FEF769FE38B90135E8E70424EDE7EB
:108244000E24EBE70B24E9E70F24E7E7543400207E
:1082540058340020F8B5074610B97846FEF7CAFD31
:108264000F4E346894B10F4D01232B7023791BB941
:1082740054F8043C384698472468002CF6D12B78EF
:10828400022B03D13168064C09B92970F8BD0B796A
:108294000E6813B1204603F057FC3146F4E700BFE3
:1082A400C8360020C436002010B5044610B97846FC
:1082B400FEF7A0FD00232372211D0248BDE81040F3
:1082C40003F021BCC836002010B5044610B9784626
:1082D400FEF790FD074A1378013B012B04D80223D3
:1082E40013700123237210BD211D0348BDE8104003
:1082F40003F02ABCC4360020C83600200B888268EC
:10830400D25A073222F00302134402889BB2043A81
:10831400934288BF00230B80704713B58368C91A42
:10832400ADF806100DF10601FFF7E8FFBDF80630C1
:108334008068184402B010BD10B5044610B97846E0
:10834400FEF758FD2388042B02D87846FEF752FD29
:108354002088043880B210BD70B5064615460C4618
:1083640011B97846FEF746FD16B97846FEF742FD88
:10837400B4F1005F24D94FF08053D3F80C3103F5E6
:108384000023B4EB832F1ED26B1E2344B3F1005F92
:1083940026D94FF08052D2F80C2102F50022B3EB1B
:1083A400822F20D2042D02D87846FEF723FD358093
:1083B4000023043D7380B380B4602580A37070BD36
:1083C400B4F5000F08D94FF08053D3F80C3103F5FE
:1083D4000053B4EB832FD7D37846FEF70BFDD3E7D6
:1083E400B3F5000F08D94FF08052D2F80C2102F5F2
:1083F4000052B3EB822FD5D37846FEF7FBFCD1E7CE
:1084040038B5044610B97846FEF7F4FC6288A368D0
:1084140013449B78012B02D17846FEF7EBFCEFF373
:10842400108572B6A268A18811448B78032B0AD1F7
:108434002046FFF772FFA368C31A6380002383708A
:1084440005B962B638BD002393706380A380F7E753
:10845400F8B50E461546044610B97846FEF7CAFC30
:1084640016B97846FEF7C6FC6288A36813449B7865
:10847400012B02D17846FEF7BDFC002D37D02388AE
:10848400043B9BB29D4232D8EFF3108772B66188E9
:10849400A388EA1D22F00302994292B204D25B1A25
:1084A4009A4210DD042016E018D92088401A904220
:1084B40009D29A42F6D8032881BFA3685B18042224
:1084C4009A70002363806288A1688B188D52012200
:1084D4009A700020336007B962B6F8BDA2681344ED
:1084E4009B78002BDED193706380A380EBE7092097
:1084F400F3E7F8B50D461646044610B97846FEF77C
:1085040079FC15B97846FEF775FCAB78012B02D0DF
:108514007846FEF76FFC2B88B34202D27846FEF70A
:1085240069FC16B97846FEF765FCEFF3108772B65E
:108534000223AB70E1182E802046FFF7DFFE62882D
:10854400A38893421FBFA3689B1800229A7007B99F
:1085540062B6F8BD70B50D46044610B97846FEF70C
:1085640049FC15B97846FEF745FCEFF3108672B660
:10857400A288A36813449A78042A06D1211D2046B0
:10858400FFF7BCFEA288A36813449A78022A05D098
:10859400032A08D0052006B962B670BD03229A707A
:1085A4002B600020F7E77846FEF724FCF9E738B59E
:1085B400044610B97846FEF71DFCEFF3108572B639
:1085C400A088A16801448B78042B03D12046FFF7CF
:1085D400A4FE01468878831E5842584105B962B604
:1085E40038BD38B5044610B97846FEF703FCEFF3FE
:1085F400108572B6A088A16801448878C31E012B37
:1086040005D9831E5842584105B962B638BD204683
:10861400FFF783FE0146F0E7F8B50D46044610B9AE
:108624007846FEF7E7FB15B97846FEF7E3FBEFF370
:10863400108672B6AB78012B19D0032B22D1A288F5
:10864400A36813449D4202D07846FEF7D3FB00276B
:10865400AF70211D2046FFF751FEA288A368134482
:108664009B78042B00D1A78006B962B6F8BD628856
:10867400A36813449D4202D07846FEF7BBFB002357
:10868400AB70F1E77846FEF7B5FBEDE710B5EFF315
:10869400108472B68288816811448B78042B02D1CD
:1086A400FFF73BFE01468878B0FA80F0400904B930
:1086B40062B610BD037942799B1A03F57F2303F652
:1086C400FF7300EB0330704710B5054884681C2223
:1086D400002117F061F82046BDE8104004F03CB8D2
:1086E400CC36002070B5194CE36813B97846FEF710
:1086F40081FB237E13B17846FEF77CFB6368092B6C
:1087040002D97846FEF776FB114D0026636855F8CA
:1087140023309847022811D003280DD0012810D106
:1087240063680133092B636002D97846FEF762FB64
:10873400237E002BEAD004E06660F9E7237E0BB1C8
:10874400207070BDBDE87040FFF7BEBFCC3600207E
:10875400E0FD0300038810B5044613B97846FEF71C
:1087640049FB2088074B04EB800030EA030203D066
:108774006288B2F5FE4F04D11C4004F58054207881
:10878400204410BD00F0FFFF70B504460E4647F6C6
:10879400FE65FFF7DFFFB04207D2844205D243886B
:1087A400013B9BB2AB42F4D870BD0020FCE7000053
:1087B4000A78094B032A04BF002119761978012984
:1087C40003D11B7E3BB9FFF78DBF022903D1032AD6
:1087D40001D1FFF779BF7047CC36002010B50C4C9F
:1087E400E3681878002203F58051184404F0A8FACD
:1087F40050B9E1680846FFF75DFF814206D001F5F4
:108804008051E160032010BD0120FCE70220FAE75B
:10881400CC3600201FB50A4B02221B688DF80020BD
:108824000193084A4FF4805369460120029300F0F3
:108834001BFFB0FA80F0400905B05DF804FB00BFEF
:10884400EC360020E83600201FB50123CDE90221D3
:108854000190054A8DF800306946184600F004FF7F
:1088640005B05DF804FB00BFE8360020264BD8684D
:1088740002794179013A91422DE9F0471E4603D12C
:1088840001205876BDE8F08700F580531F491C7815
:108894001C440B6813F8045F1D44FFF70BFF638847
:1088A400013B9BB247F6FE62934200F5805788462F
:1088B40004D920463946FFF767FF0446DFF850A085
:1088C4004FF001092CB9B4FA84F4640974760120D8
:1088D400D8E7D8F800106288284601F5805104F0E2
:1088E4002FFA05460028EED004225146204686F889
:1088F4001890FFF7A9FF28B920463946FFF744FF2F
:108904000446DFE70020BDE7CC360020EC3600202B
:10891400F8FF030038B5104CE36818784FF6FF727F
:1089240003F58051184404F00BFA88B1E368197810
:108934000B4498420CD0657E0849094B0422002D53
:1089440008BF1946FFF780FF20B90120207638BD03
:108954000120FCE70020FAE7CC36002000000400E8
:10896400FCFF030070B50C4D0C4EE96830680C78C0
:1089740004302246FFF768FF58B9336804F0FC045A
:1089840004341C44EB686C611A7813442B61012095
:1089940070BD0020FCE700BFCC360020EC36002080
:1089A40008B5054B054918680422FFF74DFFB0FAD6
:1089B40080F0400908BD00BFEC360020D836002006
:1089C400074B10B51968074C40F6FC720431E06897
:1089D400FFF73AFF10B90120207610BD0020FCE714
:1089E400EC360020CC36002010B50C4CE16808466B
:1089F400FFF760FE81420AD1094B0A491868042234
:108A0400FFF722FF40B901232376022010BD01F5B0
:108A14008051E1600320F9E70020F7E7CC3600201D
:108A2400EC360020F03600202DE9F74F324C236954
:108A340013B97846FEF7DEF9636913B97846FEF791
:108A4400D9F9DFF8B89047F6FE6A6369D4E90306FA
:108A540003EA0908A8EB0308FFF72CFE7388013B1F
:108A64009BB2534508F5805800F5805B05D9304624
:108A74005946FFF789FE064668B1354600275D452D
:108A840013D327BB012335B1698847F6FF7291429E
:108A940001D0002BD9D001202AE028460192FFF70B
:108AA40059FE019A05461746E9E72A8807EB820230
:108AB400904509D986EA050313EA090F04D16B88A6
:108AC400013B9BB25345E8D90FB90123DCE73A4691
:108AD40031466069FFF7B8FE48B963691F446761AE
:108AE40015B97846FEF786F925610023CBE7002007
:108AF40003B0BDE8F08F00BFCC36002000F0FFFFCC
:108B04001FB50A4B0222DB688DF800200193084A46
:108B14004FF4805369460120029300F0A5FDB0FA9A
:108B240080F0400905B05DF804FB00BFCC3600209E
:108B3400E83600204FF0102310B55A6901321ED0D8
:108B44005A69E2B15B69A3F58053A3F58053164AD1
:108B5400196813604B1E033324D8C1F30B030BBBFA
:108B6400124A1348D1600121117012491383936092
:108B740001330A2B09D17846FEF73CF90AE04FF09D
:108B84008052516913694B43DFE751F82340844213
:108B9400EED153600120084900F056FDFFF7A2FD15
:108BA400012010BD0020FCE7EC360020CC3600206C
:108BB400058B0200E0FD0300B587020010B50446F2
:108BC40010B97846FEF716F9094B187860B1E068D9
:108BD400D9684379A0EB0333994206D3FFF76AFDC2
:108BE40081428CBF0020012010BD0020FCE700BFA3
:108BF400CC360020024B1878003018BF0120704793
:108C0400CC36002038B50E4C2378054613B178468F
:108C1400FEF7F0F82B78032B02D07846FEF7EAF83B
:108C2400EB68E360012000230649A56063602070BF
:108C3400238300F009FDBDE83840FFF753BD00BFB2
:108C4400CC360020B5870200014B1868704700BF7E
:108C5400EC36002010B5044610B97846FEF7CAF881
:108C640063681BB123680BB1A36813B97846FEF798
:108C7400C1F8A3685A1E1A4202D07846FEF7BAF821
:108C84000023C4E9033310BD38B50546F0B1E9B19A
:108C94008368EBB1EFF3108472B6D0E902302A692D
:108CA4001A44824203D104B962B604240CE0013BA5
:108CB4000340D5E9000202FB030016F044FDEB6813
:108CC4000133EB6034B962B6204638BD0E24FBE7AD
:108CD4000924F9E70024F7E770B50E460446F0B11D
:108CE4008368F3B1EFF3108572B6D0E9033199428A
:108CF40003D105B962B605250FE04EB18368013B87
:108D04000B40D0E90012304602FB031116F01BFDA4
:108D140023690133236135B962B6284670BD0E2537
:108D2400FBE70925F9E70025F7E70000024AD2F836
:108D34000034002BFBD0704700E0014038B5C0F38D
:108D44000B05EDB9F1B1104C0223C4F80435FFF75B
:108D5400EDFF01F6FF7121F47F6121F00F01014461
:108D6400884206D10023C4F80435FFF7DFFF284604
:108D740038BDC4F80805FFF7D9FF00F58050EFE7C8
:108D84001025F4E70925F2E700E0014040EA010379
:108D940070B5064698071ED1FAB112F003001CD133
:108DA4000F4B94080122C3F80425FFF7BFFF0546C3
:108DB400A54206D10A4B0022C3F80425FFF7B6FFEB
:108DC40070BD51F825305A1C03D046F82530FFF702
:108DD400ADFF0135ECE71020F2E70920F0E700BF12
:108DE40000E001404388012B05D0022B01D104305F
:108DF40008600120704704304860FAE708B508228B
:108E04000221094803F0FFFA20B90848BDE80840E8
:108E140003F07ABC064A9168127B02724160BDE895
:108E2400084003F01FBB00BFFC360020DC2D0020EF
:108E34004837002010B5044610B97846FDF7DAFF2C
:108E44002346BDE81040184700B50A4B1A7B9B68BF
:108E54008DB0012A08BF03F1FF330493039002236A
:108E640001A88DF808208DF80430FFF7F3F90DB050
:108E74005DF804FB4837002038B50E4D2B78C3B994
:108E84000D4B5C6804F50054B4F1807F11D80422C2
:108E940001210A4803F0B7FA20B90948BDE838406F
:108EA40003F032BC012344602B70BDE8384003F06A
:108EB400D9BA38BD5C37002048370020FC36002082
:108EC400CC2D002010B501210C4803F0E1FA80B943
:108ED40002210A4803F0DCFA044650B90146142280
:108EE400074816F059FC074B1C70BDE81040FFF70B
:108EF400C3BF054803F008FCF7E700BFFC360020B9
:108F04004837002020370020FC2D002030B50D46C6
:108F14008DB07AB94B88012B0AD1124C227812B940
:108F24007846FDF767FF104B6A685A600023237088
:108F34000DB030BD032A02D07846FDF75BFF2C222A
:108F4400002101A816F028FC11238DF80430074BEA
:108F54000395DA681B69059201A80693FFF77AF96D
:108F6400E6E700BF5C37002048370020FC360020CD
:108F740013B501F041FD00216B46124A1248134C0F
:108F8400CDE9001103F092F9009B0BB1019A6AB983
:108F940000232360A3602373FFF730FF236863601B
:108FA400FFF76AFF01F068FD02B010BD1968A16007
:108FB40019792173934202D909B92160EEE7136844
:108FC4002360EBE7E98D0200FC36002048370020DF
:108FD40008B503F0E7FBA0F5805008BD7FB500217C
:108FE4001822684616F0D8FBFFF7F2FF0123009021
:108FF40001936946054B0648039303F071FA10B1D7
:10900400044803F081FB07B05DF804FB118F0200F4
:10901400FC360020EC2D002008B5142200210A485B
:1090240016F0BAFB01F016F8084B094A09499A6090
:1090340000225860C3E903125A61074B1A70BDE855
:109044000840FFF7CBBF00BF48370020243700207B
:109054004D910200008793035D37002010B5074C43
:1090640023784BB90648074B036000F081FD06489E
:1090740000F08EFF0123237010BD00BFF8360020DE
:109084003C370020B59102002437002010B501F0D0
:10909400B3FC104A117B1346C9B9917BB9B9118A43
:1090A40041F28262914202D80B4A12787AB10122CB
:1090B4001A739A68002401321C829A60FFF79EFE9C
:1090C4002046FFF7C1FE01F0D7FC204610BD08245E
:1090D400F9E700BF483700205D37002010B501F0E4
:1090E4008BFC174A547B1346BCB1917B21BB118A7C
:1090F40041F28262914202D8124A1278F2B11A7B8A
:10910400002058732AB1012A0BD07846FDF772FE6D
:1091140003E0FFF7BBFF0028F7D101F0ADFC2046C8
:1091240010BDC3E9000018731882FFF78DFEFFF726
:1091340065FEFFF7A1FEF0E70024EEE71446ECE736
:10914400483700205D37002010B5174C237B2BB126
:10915400012B12D07846FDF74DFE1EE0228A41F223
:1091640082639A4202D8114B1B78B3B1FFF7B6FF62
:10917400638A0BB1013B638210BD228A41F2826192
:109184008A4206D942F2B0118A420AD8FFF7A6FFF2
:1091940003E0064B1B78002BF8D1238A013323828A
:1091A400E6E76373E2E700BF483700205D3700203D
:1091B4000378042B10B50ED143681B785BB11C4BAC
:1091C4004269197B047E69BB598AF9B9012C9968F3
:1091D40002D08A4203D810BD4C1CA24218D92A31AD
:1091E4008A42F8D8997B0029F5D184689A60114A9B
:1091F4001A619981C3E90011FFF700FEFFF73CFEF5
:1092040004F11000BDE81040FFF71EBE012CE2D1AE
:10921400996801318A42DED10122BDE810405A73B7
:10922400FFF75CBF0129D6D1012CD4D09968F1E7AE
:10923400483700200000062D38B5164CD4E9002329
:109244009A4205461FD2207B134B1449012808BFBC
:109254000B469A4207D263682268403B9A4208D37D
:10926400FFF70AFE05E001236373FFF737FF0028C9
:10927400F1D0EFF3108072B623685A1C22602B6081
:1092840028B962B638BDFFF7F7FD0F20FAE70020D2
:10929400F8E700BF48370020FFFF7F0000E0FF0031
:1092A4000C4A10B51368144628B101200A49034436
:1092B4008873136010BD13B97846FDF79BFD2368CE
:1092C400013B2360002BF5D1034ABDE810409373A2
:1092D400FFF704BFF43600204837002000B58DB0F6
:1092E4000323ADF8080001A88DF8102003918DF830
:1092F4000430FEF7AFFF0DB05DF804FB014B986836
:10930400704700BF48370020034B98681B7B012B34
:1093140008BF00F1FF30704748370020044B9B68BA
:109324005840C20748BF03F1FF331846704700BFD7
:1093340048370020014B187B704700BF4837002096
:1093440038B50A4B1C787CB9094D01221A7029736F
:10935400A860FFF753FD2046FFF776FDC5E90044FA
:10936400FFF78AFD204638BD0820FCE7203700209F
:10937400483700202DE9F8431D4CDFF8789000268B
:109384000221204602F056FA5FFA86F805460027C5
:10939400ADB967B12946204602F0B3FA082806D1D0
:1093A40054F8043C1BB12A464946404698470136C6
:1093B400032E04F1BC04E3D10120BDE8F88354F882
:1093C400043C23B134F80C2C29464046984734F821
:1093D4000C3C02210133204624F80C3C02F046FAEE
:1093E4000221204602F026FA01370546D0E700BFE5
:1093F4007437002008FE030038B5012104460C3000
:1094040002F018FA054628B3164BC4F89C30002322
:10941400C4F8A03003786268012B07D0022B1BD05C
:109424007846FDF7E7FC4FF4FA7307E081688B1A7E
:1094340099084FF4A9734B4303F5FA730A4A93420C
:1094440094BFC4F8A830C4F8A8200123C4F8AC40E1
:1094540084F8B830284638BD83689B1A1A0B034B2E
:109464005343E9E79594020060850100645E0100BE
:1094740010B50446FFF7C0FF48B104F19C000EF09C
:10948400E9F820B17846BDE81040FDF7B3BC10BD43
:109494004B4B1B782DE9F74F80460D463BB10EF040
:1094A4000FF9002385F8B83003B0BDE8F08F01F15F
:1094B4000C09D1F8A8704846012102F0BBF9064610
:1094C40010B97846FDF796FCDFF8FCA0A7F5FA770B
:1094D40000244FF4A97B3378012BA7EB040406D0B6
:1094E400022B3BD07846FDF785FC00231FE06B6818
:1094F400B268B4FBFBF4D21AA400944228BF144609
:1095040024B901937846FDF775FC019BF1687068F6
:1095140023F00303224619441844FFF737FC10B123
:109524007846FDF767FC6B681C446C60B3686A6836
:109534009A422AD10EF0C4F84846012102F096F965
:1095440000236B6085F8B8301E4B186801F0E2FA0E
:10955400284603B0BDE8F04FFFF78ABF6B68B268D6
:10956400B4FBFAF4D21A2403944228BF144624B953
:1095740001937846FDF73EFC019B706823F00303DA
:1095840021461844FFF7DAFBC9E701F00DF93378F7
:10959400B0EB080448BFA8EB0004012B0BD0022B4E
:1095A4000CD07846FDF726FC00232344BB4292D915
:1095B4000EF086F8CCE74FF4A973F6E75346F4E7C8
:1095C4006437002060370020645E010070B51B48DA
:1095D4001B4C01F081FA1B4B186004F11C0341F28F
:1095E40003060825636104F10C0004F118032361E8
:1095F400A681A57302F061F904F1D803C4F8D03050
:1096040004F1C80004F1D403C4F8CC30A4F8C86051
:1096140084F8CA5002F051F904F5CA73C4F88C31C5
:1096240004F5C873A4F8846184F88651C4F88831B9
:1096340004F5C270BDE8704002F03FB979930200AE
:109644006837002060370020022838B504460D46EC
:1096540002D97846FDF7CEFB024BBC2202FB043450
:10966400A56038BD6837002002282DE9F84F05466B
:109674000C46924602D97846FDF7BCFB14B97846ED
:10968400FDF7B8FB2378012B12D16368990702D048
:109694007846FDF7AFFBE3689A0702D07846FDF7FA
:1096A400A9FBA3689B0711D07846FDF7A3FB0DE047
:1096B400022B0DD16368C3F30B0313B17846FDF796
:1096C40099FBA368C3F30B03002BEDD1A36813B973
:1096D4007846FDF78FFBEFF3108772B6BC266E4316
:1096E400DFF8908006F10C0BC3440021584602F0C9
:1096F400A1F8814638B30021584602F0B7F804F1C6
:10970400100354F8042B49F8042B9C42F9D1BAF104
:10971400000F05D0BC2303FB05835B88AAF8003047
:10972400BC2303FB05856B8895F8B84001336B8037
:10973400E4B90F4B1D783DB908EB0600FFF75CFE5A
:109744002FB12C4605E004246FB92746002062B6E9
:109754003C4640B106F19C0040440DF07BFF10B143
:109764007846FDF747FB2046BDE8F88F0024EBE779
:10977400643700206837002070B50A4D0024EFF3E9
:10978400108672B60021281902F0BBF806B962B639
:10979400082805D1BC34B4F50D7FF0D1002070BD8C
:1097A4000120FCE77437002070B5EFF3108672B621
:1097B400144C236818BB13B97846FDF71BFB2368C8
:1097C400013B236093B9104D95F8B83013B928467E
:1097D400FFF74EFE95F8743113B90C48FFF748FEB5
:1097E40095F8303213B90A48FFF742FE2368094A54
:1097F400003318BF0123137006B962B670BD01337C
:109804002360F3E79C3900206837002024380020C7
:10981400E03800206437002010B1800B014B185C45
:10982400704700BF18FE030012DF7047137813B5AA
:1098340063B1022B0CBF0724002410F8013C292B30
:1098440043D005D8162B4BD002B010BD547DF4E79D
:109854002A2B1BD02B2BF7D1022CF5D110F8021C8C
:109864000139C9B203F0F2F90028EDD0234B1B688B
:109874005B06E9D5224B1B68012BE5DD214B224A0F
:10988400D3F8043500920190A62219E0022C01D0ED
:10989400072CD9D110F8021C013901F0A5FC0028CD
:1098A400D2D0164B1B685A06CED5154B1B68012B1C
:1098B400CADD144B154AD3F8043500920190932263
:1098C4001349022002F0BAF9BEE7022CBCD110F809
:1098D400021C0139C9B202B0BDE8104012F0CEBB7F
:1098E40001884FF6E4639942AED110F8021C0230AD
:1098F400033902B0BDE8104009F006B91C2E00205F
:10990400182E002000100140A3FE03007AFE03007D
:109914006FFE030070B58AB00EF08CFB044600287D
:1099240034D0002306468DF810300FCE05AD0FC598
:1099340033682B60627D052A0CD9207D00F00F036B
:10994400072B07D004AB063A04F11D0100F00F0009
:109954000DF0F0F9114B1A68AAB104AB0393237DFF
:10996400C3F303038DF80430637D062B89BF063BE4
:1099740000238DF8053004F11D0398BF8DF80530E0
:10998400029301A8904720460EF03EFB0EF06CFBBC
:1099940080F00100C0B20AB070BD00BFA43900203D
:1099A40000B50A4B1A78032A8DB00CD104221A7020
:1099B40000212C2201A815F0EFFE1C2301A88DF82C
:1099C4000430FEF747FC0DB05DF804FBA03900201D
:1099D400F7B5354F3A780546002A5BD100285BD0AD
:1099E400067A0F2E01D0062E58D104F05FFFE868E6
:1099F40000284CD0FDF710FA0DF10700FFF714FF13
:109A04000446002840D19DF80730012B48D1FDF7CA
:109A14002BFA00F0A9FA304600F086FFE87800F04F
:109A240027F900F0B9FD0DF0ABFD20480EF0B2FBB4
:109A34000DF0FAFAFFF7CAFD04F076F800F054FCD2
:109A440004F0F4FE04F012FD284601F031FBFDF7AA
:109A5400D5FF03F05BFC08F0E1FE08B1062821D134
:109A640013480DF039F92A200DF0D8F92B200DF008
:109A7400D5F929200DF0D2F916200DF0CFF90D4BB0
:109A840000221A6001233B70204603B0F0BDFDF7AD
:109A9400CFF9B1E70824F7E70E24F5E70724F3E745
:109AA4000224F1E70446EFE7A039002019990200E7
:109AB4000C2E0020A439002037B51B4D2B78012B28
:109AC40005D013B1033B012B26D908241FE00EF067
:109AD4007DFA01F0FDFAFDF7D3FF09F005F804461D
:109AE400C0B1062816D0114B1B685B040FD5104B70
:109AF4001B68012B0BDD0F4B0F4AD3F804350F49BC
:109B040001900092022040F2A71202F097F820463A
:109B140003B030BD00F034FF0DF08EFD0446002884
:109B2400F5D102232B70F2E7A03900201C2E00206F
:109B3400182E0020001001401CFE03006FFE0300DD
:109B440008B5084B1A78022A0AD1032206481A706B
:109B54000DF038FD18B17846FDF74CF9002008BD2A
:109B64000820FCE7A0390020A5990200FDF78ABF70
:109B7400FEF79ABBFEF7A8BB08B500F0DDFC002099
:109B840008BD07F087BC0000044B1A680132B2F12B
:109B9400704F08BF01221A6018687047A839002066
:109BA40010B5044610B97846FDF724F90023C4E93A
:109BB400003310BD38B50D46044610B97846FDF79C
:109BC40019F915B97846FDF715F900236B60EFF321
:109BD400108372B6226822B92560656003B962B643
:109BE40038BD62685560F8E710B5044610B9784688
:109BF400FDF700F9EFF3108272B6206820B9002354
:109C0400636002B962B610BD43682360002BF8D1CB
:109C1400F5E710B5044610B97846FDF7EBF820686F
:109C240010BD35DF70473CDF70473DDF70470000F3
:109C340010B504464FF0FF30FFF7F3FFFF2100207B
:109C4400FFF7F3FF21460020FFF7EDFFBFF34F8F2F
:109C54000549064BCA6802F4E0621343CB60BFF3C4
:109C64004F8F00BFFDE700BF00ED00E00400FA05E0
:109C740007289ABF024B33F81000FA20704700BF40
:109C8400CEFE0300024B5868103840B2704700BF44
:109C940000ED00E000280346B8BF00F11F03084AA6
:109CA4005B1152F82330424202F01F0200F01F0001
:109CB40058BF504223FA00F000F00100704700BF83
:109CC40000E100E046DF704730B501F110031032C7
:109CD400103013F8014D12F8015D8B4284EA05043B
:109CE40000F8014DF5D130BD2DE9F04F91B002F1EE
:109CF4000F0504AE98468A462D11034600F1100460
:109D0400B14618685968374603C70833A3423E462C
:109D1400F7D102F00F040DB1002C54D000274FF0FE
:109D2400020B1022002108A815F036FD4846FFF763
:109D3400C9FF01220CA89DF930100F23064690F8A4
:109D440000C010F801EF4FEA4C0C013B4CEADE1C5A
:109D54009BB200F801CC002BF1D19DF83F305B00A1
:109D6400DBB20029B8BF83F087038DF83F30531C62
:109D74009B454FF00202DDD2013D0AEB05112FB3E2
:109D84000CAA6846FFF7A0FF102200210CA815F0CA
:109D940003FD0024AC422BDB3246694608A8FFF7DA
:109DA40093FF4846FFF78EFF10AA334603CB934236
:109DB400C8F80000C8F804101E4608F10808F4D1D9
:109DC40011B0BDE8F08F0127BB46AAE722466846DA
:109DD40015F0B9FC10AB2344802203F8402C013465
:109DE400102C02D10CAA6946CBE70DF80470F6E7F3
:109DF4000AEB0412314608A8FFF766FF4846FFF74E
:109E040061FF0134C6E7000038B5124B1A680446F6
:109E14002AB11A6845685268AA1A002A0DDA1A6823
:109E240062611C609A88013292B29A8012B97846B3
:109E3400FCF7E0FF0123237038BD19684A691AB1A1
:109E44005068401B002802DB62614C61EAE711465E
:109E5400F4E700BFB0390020124B1A68824210B5F3
:109E64001A4604460BD142691A609A8892B2511E6E
:109E740089B299808AB97846FCF7BCFF0DE01B686B
:109E84005BB15969A1420BD16169596193889BB255
:109E9400591E89B29180002BEDD00023237010BD90
:109EA4000B46EDE7B0390020014B186800F032BED4
:109EB400AC390020044B1A6822B11B680349586866
:109EC40000F052B900F0A6B9B0390020AD9E0200EE
:109ED4002DE9F04100F0BEF8224E054637464FF01A
:109EE4000008336823B133685B685B1B642B06D4BA
:109EF40000F0B0F8FFF7DEFF0120BDE8F081346820
:109F04002378012B02D07846FCF774FF63693B6029
:109F1400BB88C4F814809BB25A1E92B2BA8013B99B
:109F24007846FCF767FFA36813B97846FCF762FF2D
:109F34000223284623702169A368984700F08AF811
:109F44002378022B0546CCD1E2680AB92270C8E70F
:109F540063681344591B6429FBD463602046FFF7EC
:109F640053FFBEE7B039002008B5064B064800226F
:109F74001A605A6000F0B0FD044B1860BDE8084058
:109F840000F05BB8B0390020D59E0200AC39002047
:109F940010B5044600F098FE10B97846FCF72AFF85
:109FA40014B97846FCF726FFA36813B97846FCF782
:109FB40021FF2378012B02D17846FCF71BFF0023F5
:109FC40063612046FFF720FF00F044F8BDE810402D
:109FD400FFF770BF10B5044600F076FE10B978465E
:109FE400FCF708FF14B97846FCF704FF2046FFF796
:109FF40033FF0023636100F02DF8BDE81040FFF744
:10A0040059BF38B504460D4600F05EFE10B97846D7
:10A01400FCF7F0FE14B97846FCF7ECFE2046FFF797
:10A024001BFF0023636120466560FFF7EDFE00F02F
:10A0340011F8BDE83840FFF73DBF08B515F038FA10
:10A0440038B915F073F920B17846BDE80840FCF73B
:10A05400D1BE08BD10B5EFF3108072B60C4A0D4B9B
:10A064001968D2F80435D2F80441012C04BFD2F89F
:10A074000435013100B962B6074843EA01614FF47F
:10A0840080420023E0FB0123D00B40EA434010BD93
:10A0940000100140B839002040420F000A4B10B5AF
:10A0A4004FF40032094CC3F84823C3F8082322684C
:10A0B40012B97846FCF79EFE2468FFF7CBFF2346CF
:10A0C400BDE81040184700BF00100140C43900200B
:10A0D40010B5EFF3108072B61E4B1F490022C3F86F
:10A0E40004210A6801320A6000B962B61B4A116889
:10A0F40009B31168013911601268E2B9184AD3F83A
:10A1040004051168884217D2EFF3108072B6D3F8B1
:10A11400041514680131A1422ABFD3F8042512683A
:10A124000232C3F8442500B962B64FF40032C3F8D2
:10A134004423C3F8042310BD0A4C226812B978469C
:10A14400FCF758FE2468FFF785FF2346BDE810405E
:10A15400184700BF00100140B8390020BC39002066
:10A16400C0390020C439002037B5002304460193C8
:10A174000D4611B97846FCF73DFE204B1D60FFF7F4
:10A1840069FF031B002BB8BF241A1D481D4AA8BF32
:10A1940000244FF4004500210023E5FB040115F0E1
:10A1A4008DF9EFF31083019372B6174A174CD2F866
:10A1B40004350228C3F1FF1101F57F4138BF0220A5
:10A1C4008142134910D30344C2F844354FF4003399
:10A1D400C2F84433C2F80433002323600B60019BAC
:10A1E40003B962B603B030BD03F17F4301330344C6
:10A1F4001A0E0132226023F07F43EFE7C4390020B6
:10A2040020A1070040420F0000100140BC3900208B
:10A21400C0390020074B4FF40032C3F84823C3F879
:10A224000823054A00231360044A1360044A136098
:10A23400704700BF00100140BC390020C039002025
:10A24400C439002030DF704731DF704710B5D0E9E2
:10A2540000238468C168A2EB731283EAF4330360B9
:10A264000C441344114444608160C360184610BD1B
:10A2740073B50D46064610B97846FCF7BBFD0024BD
:10A28400A54201D802B070BD0DF10700FFF7DAFF57
:10A294009DF80720002AF7D02B1B9A4288BF8DF81F
:10A2A400073030199DF80710FFF7CEFF9DF80730EF
:10A2B4001C44E5E737B50421044600230DEB0100F7
:10A2C4000193FFF7D5FF074B2360019BE360C4E9CB
:10A2D400013314252046FFF7B9FF013DFAD103B03D
:10A2E40030BD00BFED5EEAF1704748DF704749DFDB
:10A2F40070474ADF70470000074B03221A7418683E
:10A30400064A5A6143F2B06140F6D863984288BF66
:10A314000B469360704700BFF4390020143A0020C4
:10A32400054B1B68A0F1780228335843034BB0FB5C
:10A33400F3F0101A704700BF103A002040420F009B
:10A3440038B50E4A0E4C012363711368002501339E
:10A354001360257400F084FA0DF028FA2068FFF7E2
:10A36400DFFF084A0146284600F0ECF920B17846A0
:10A37400BDE83840FCF73EBD38BD00BF283A002098
:10A38400F4390020FDA202001E4B30B45C6928B1F0
:10A394001A68D96822440131D9601A609A68012187
:10A3A400013224FA01F5012A19749A605D61196871
:10A3B4000DD0022A19D05B69134A1944914203D87B
:10A3C40040F6D76293421BD830BCFFF7B9BFB5F54E
:10A3D400FA7F03D130B900225A61ECE741F6B15259
:10A3E4009442E8D840F6D862F6E7DA68022A02D145
:10A3F400054A521AF0E7012ADDD10028EBD0DAE74A
:10A4040030BC7047F43900208096980070B5424CF7
:10A41400424D012323712B781BB1414B1E78002E32
:10A424005BD000232374042853D8DFE800F0034DE5
:10A434004A4844003B4DA179AA68C4E90233236821
:10A444002260002934D0012121743749002B08BF30
:10A454000B46991AB1F57A7F26D39A4224D86161C2
:10A4640043F2B06043F69822C5E9020201236B71FE
:10A47400A371237C023B012B0DD8637943B10DF00A
:10A48400B1F92068FFF74CFF00F01CFA0023637158
:10A49400234B00221A70237C2448022B04BF01237F
:10A4A40023760023237170BD4FF47A736361D7E779
:10A4B400FFF746FFD4E70120FFF766FFD9E7002046
:10A4C400FAE70DF021F9D4E700F08EF90DF054F914
:10A4D400CFE77846FCF78EFCCBE700F065F92B78E4
:10A4E4002060022B0FD0032B06D0012B10D10223A6
:10A4F400237400232B70BCE70A4B0D490D4A5E718F
:10A50400C3E90212A67103232374064B6361F0E7C7
:10A514007846FCF76FFCECE7F4390020253A00207C
:10A52400243A0020143A002080969800043A00202F
:10A53400A0860100FF1FA107043808B5042825D808
:10A54400DFE800F016220A030F00114B1B7E012BDB
:10A554001CD1FFF7CCFEC8B17846BDE80840FCF733
:10A5640049BC0B4B00221A76BDE808400DF072B9C5
:10A5740008480123437143F6982240F6D863C0E9A2
:10A584000232FFF7B6FEE6E70248FAE708BD00BF6D
:10A59400F4390020143A00200D4A4FF4807100234E
:10A5A400918043F2B06C43F698211370C2E902C162
:10A5B400084A1060084A1370084A1370084A136066
:10A5C400084A13761360938001239371704700BF88
:10A5D400143A0020103A0020243A0020253A0020A2
:10A5E400283A0020F439002010B50E4C227E012AAE
:10A5F4000CD022B1022A0CBF1120002010BD0A4841
:10A60400FFF773FE10B17846FCF7F4FB0748FFF739
:10A6140070FE10B17846FCF7EDFB02232376002090
:10A62400ECE700BFF439002011A40200143A002022
:10A63400074B1B7C023B012B07D9064B18780138CA
:10A6440002288CBF0020012070470120704700BF02
:10A65400F4390020253A0020014B1868704700BFE8
:10A66400F4390020074B587910B548B11868FFF742
:10A6740057FE044600F098F80346201A48BF181BFA
:10A6840010BD00BFF4390020014B5879704700BF5A
:10A69400F4390020014B1879704700BFF4390020C9
:10A6A400024B187E003018BF01207047F439002097
:10A6B400EFF3108372B6054A527922B1044A4FF47B
:10A6C4008071C2F8001103B962B67047F4390020F2
:10A6D40000E100E0044B1B7E022B04D1034B01225A
:10A6E4001A70FFF7E5BF7047F4390020253A0020BF
:10A6F400054B1B7E022B06D10128044A08BF032305
:10A704001370FFF7D5BF7047F4390020253A0020B5
:10A71400064B19781A4631B128B90549097811B19F
:10A724001870FFF7C5BF1070704700BF243A0020AF
:10A73400253A0020024B1B6803B962B6704700BF7C
:10A744003C3A0020022810B522D8EFF31084114BB4
:10A754001C6072B6104B43F82020104B002243F8C3
:10A7640020200F4B1B787BB1830003F1804303F55A
:10A7740000431030C3F84021012202FA00F0094AD4
:10A78400C2F80403C3F84015FFF7D4FF002010BD3E
:10A794000720FCE73C3A00202C3A0020483A0020ED
:10A7A400383A00200080004008B5EFF310820A4BCD
:10A7B4001A6072B6094B1B7853B1094B0022C3F8D7
:10A7C4004C210122DA64D3F84C05FFF7B3FF08BD2E
:10A7D400044B1868F9E700BF3C3A0020383A0020DF
:10A7E40000800040403A00202DE9F84F0024174E25
:10A7F400DFF85C80A1464FF0010BA50005F1804510
:10A8040005F50045D5F84031CBB1D8F8043304F14F
:10A814001007FB40DB0712D5D6F800A0BAF1000FF1
:10A8240002D17846FCF7E6FA0BFA07F7C6F800906F
:10A83400C8F80873FFF7B8FFD047C5F84091013452
:10A84400032C06F10406D8D1BDE8F88F2C3A002079
:10A8540000800040014B1B6818447047443A0020B4
:10A8640008B5134B0022C3F84025C3F84021D3F8A0
:10A874004011C3F84425C3F84421D3F84411C3F864
:10A884004825C3F84821D3F848310A4B1B681BB943
:10A89400094B4FF480721A60084B01221A70FFF7BB
:10A8A400D9FB0146FFF780FF054B081A186008BD65
:10A8B400008000403C3A002000E100E0383A0020EB
:10A8C400443A00200B4A0C49002313605360936000
:10A8D4000A4A0B6010600A4A4B6013708B60094B84
:10A8E4004FF0FF32C3F80823074B4FF48072C3F8CC
:10A8F40080217047483A00202C3A0020403A00203A
:10A90400383A00200080004000E100E0044B1B784E
:10A914000F2B1EBF034B4FF48022C3F80021704756
:10A924009C3B002000E100E010B5104C104B20705F
:10A93400104803601023C0E90133FEF78BF90E4879
:10A94400FFF72EF923780F2B0AD0072B09D8EC2216
:10A954001A41D20705D55B01084ADBB282F81233EB
:10A9640010BD7846BDE81040FCF744BA9C3B00207B
:10A97400683A0020543A0020A03B002000E100E0A7
:10A984000D4B1B780F2B0DD00C4991F812335A093B
:10A99400EC231341DB0706D5094B9A6832B94FF40F
:10A9A40080230B6070477846FCF724BA1A6842F497
:10A9B40080221A60704700BF9C3B002000E100E049
:10A9C4006063002030B50D4685B0044610B9784662
:10A9D400FCF710FA0023694606488DF80030CDE9EB
:10A9E4000145FEF751F918B9FFF790FF05B030BDE6
:10A9F4000420FBE7543A0020F8B5EFF3108772B651
:10AA040017480268511C016002BB164B1B780F2BC0
:10AA140021D0EFF3108C72B6134A144C95680123BD
:10AA2400E5B99360124B134ED3F880103140116096
:10AA3400C3F88060D3F8841051604FF0FF32C3F83C
:10AA440084202570BCF1000F00D162B6036813B9ED
:10AA54007846FCF7CFF907B962B6F8BD2370F1E781
:10AA6400683B00209C3B0020606300209D3B00204D
:10AA740000E100E0FC06FFBD38B5EFF3108572B6C7
:10AA8400104C236813B97846FCF7B4F92368013BEA
:10AA94002360A3B90C4B1B780F2B10D00B4B9A6877
:10AAA4006AB10B4A127852B9EFF3108072B60949B1
:10AAB4001C680C605C684C609A6000B962B605B9A9
:10AAC40062B638BD683B00209C3B002060630020D8
:10AAD4009D3B002000E100E038B5054610B97846FA
:10AAE400FCF788F9094C2368092B02D97846FCF74E
:10AAF40081F9EFF3108372B62068421C2260044A85
:10AB040042F8205003B962B638BD00BF6C3B002048
:10AB1400703B00200E4B1B68834210B5044602D8DC
:10AB24007846FCF767F9EFF3108072B6094A6109B9
:10AB3400012304F01F0403FA04F452F821302343E0
:10AB440042F82130FFF7E2FE00B962B610BD00BF43
:10AB54006C3B0020983B002070B50D461646044619
:10AB640010B97846FCF746F915B97846FCF742F96E
:10AB7400EFF3108372B60022C4E9025622742460F3
:10AB840003B962B670BD000070B5044610B97846CA
:10AB9400FCF730F9A36813B97846FCF72BF9EFF307
:10ABA400108672B6237C03F0FF055BB901230648C7
:10ABB40023742146FEF7FEFFFFF7A8FE284606B9D8
:10ABC40062B670BD1120FAE7A03B002010B5044620
:10ABD40010B97846FCF70EF9207C10BD2DE9FF472B
:10ABE400324E337813B17846FCF704F90125DFF8C7
:10ABF400CC802F4FDFF8C89035700024D8F800308F
:10AC0400A34212D82B48DFF8AC80FEF7EDFF0027F3
:10AC140060BB294C69462046FEF75EF8A0B30023CA
:10AC24002846337004B0BDE8F087630904F01F01BF
:10AC340057F82300C840C20716D5EFF3108072B648
:10AC4400012202FA01F157F8232022EA010247F80F
:10AC5400232000B962B659F824309847824618B9BF
:10AC64002046FFF757FF55460134C7E70468237CA5
:10AC740013B97846FCF7BEF8D4E902309847277434
:10AC84004046FEF7B1FFC3E79DF8003043B1012B06
:10AC9400C0D1019B002BBDD0DDE902019847B9E783
:10ACA400019B002BB6D002989847B3E7A83B00203D
:10ACB400983B0020A03B0020543A00206C3B00202D
:10ACC400703B0020FFF78ABF07B5FEF7DBFF8DF866
:10ACD40003009DF803301749F02B0DD10B780F2B8F
:10ACE40025D01220FEF7D6FF80F00100C0B200F09C
:10ACF400010003B05DF804FB9DF803305BB2002B48
:10AD0400ADBF03F1604303F00F030B4A03F5614346
:10AD1400B4BFD35C93F800335B090193019A0B78B9
:10AD2400934204D0019A9342DBD30020DFE7012051
:10AD3400DDE700BF9C3B002014ED00E046DF7047D8
:10AD4400F0B58DB06D4614460B46024600F1100C6A
:10AD54002F46106851682E4603C6083262453546B0
:10AD6400F7D104AD03F11006186859682A4603C2E6
:10AD74000833B3421546F7D13846FFF7DFFF08AD75
:10AD840022460CAC2B4603CBA342106051601D46F7
:10AD940002F10802F6D10DB0F0BDFEF7A5BF01F037
:10ADA400C8BD01F0FFBD30B4032954D8DFE801F079
:10ADB4000225254E00241C70817A5A7861F306021C
:10ADC400C17A61F3C7125A70C1680D04C1F3074216
:10ADD40005F47F0501F47F412A430A43C2F30721A6
:10ADE4009A70120C1A71D9700189DC710A0A42EA4C
:10ADF4000122A3F805201C7222E01970597801F091
:10AE0400800162F3C7115970C1680C04C1F3074291
:10AE140004F47F0401F47F4122430A439A70C2F38D
:10AE24000721120C1A71D97001890A0A42EA012217
:10AE34004188A3F805200A0A42EA0122A3F8072060
:10AE4400026912BAC3F8092030BC704703220024F7
:10AE54001A705C70B8E7784630BCFBF7CBBF7FB59F
:10AE64000E461546044600B112B97846FBF7C2FFF8
:10AE740010220021684614F08FFC2B4632462146EE
:10AE84006846FEF731FF04B070BD2DE9FF410B9D0C
:10AE9400884616461C46074610B10AB103B115B9D7
:10AEA4007846FBF7A7FF6B46424639463046FEF725
:10AEB4001BFF2B469DF8282021466846FEF714FF09
:10AEC40004B0BDE8F0810000F0B50F468FB0154620
:10AED4001E46044608B101B113B97846FBF78AFF50
:10AEE4001DB97846FBF786FF01E0102DF9D8274BF2
:10AEF4001868009005AA04216846FFF7B0FF01AB6B
:10AF04002146102205A8FEF7EFFE2A46394605A879
:10AF140014F019FC0EAB2B44012203F8242C05ABCE
:10AF2400AA18194692B201A8FEF7DEFE9DF8233056
:10AF3400344603F07F0304F8013B2A46394609A846
:10AF440014F001FC05F110070EAB1F441135022368
:10AF5400ADB207F8243C2A46234605A901A8FEF70A
:10AF6400C3FE1136234605AC18685968224603C24D
:10AF74000833B3421446F7D1032207F8242C05A959
:10AF84002A4601A8FEF7B0FE0FB0F0BDDEFE0300B6
:10AF940070B50D4688B0064600B111B97846FBF786
:10AFA40029FF114C04212068019004AA0DEB010033
:10AFB400FFF755FF04AB314618461022FEF794FE06
:10AFC400234602A953F8040F02901B798DF80C3024
:10AFD40004AB18460522FEF787FE06AB03CB2860B8
:10AFE400696008B070BD00BFE2FE030070B50D4695
:10AFF40086B0064600B111B97846FBF7FBFE0F4C4C
:10B0040054F8040B009002AA68460421FFF727FFB6
:10B0140002AB314618461022FEF766FE2068019006
:10B0240002AB042218460DEB0201FEF75DFE9DF80B
:10B03400173003F03F032B7006B070BDEBFE030026
:10B0440030B50268037CD17A87B000298DF80430CA
:10B05400836814BF0821042109330B44CDE902326B
:10B06400436804930446C3680593694601A801F044
:10B07400A9FED0B1237C012B0ED02568FEF744F93C
:10B08400286120680C30FEF7D7F8054620B101F09E
:10B0940013FF284607B030BD2168009800F055FB27
:10B0A400009B093363610025F3E70425F1E7000001
:10B0B40008B500B14068054B1860FDF7ADFFFDF71A
:10B0C40057FFBDE8084002F01FBB00BFAC3B0020A7
:10B0D40008B5FDF7C3FFBDE8084002F053BB10B547
:10B0E400044610B97846FBF785FE236813B9784601
:10B0F400FBF780FE23685B6913B97846FBF77AFE99
:10B10400237C012B02D97846FBF774FEE36813B95C
:10B114007846FBF76FFE2046BDE81040FFF790BF6E
:10B12400F0B50446C7B010B97846FBF763FE63690F
:10B1340013B97846FBF75EFE236813B97846FBF72C
:10B1440059FE23685B6913B97846FBF753FE6069BF
:10B1540000F058FB1E4B1B689B0705462ED51D4B64
:10B164001B68042B2ADD1C4B1E6805AB411E00F135
:10B174001C07184611F8012F4FEA121C02F00F02A7
:10B1840016F80CC083F800C0B25C5A708F4203F109
:10B194000203EFD1002380F83A3003F1804303F532
:10B1A40088330E4AD3F8043501920D4A0290009276
:10B1B4000C494FF49472052000F040FD00232A4608
:10B1C400A168206800F082FA01F050FE47B0F0BD9B
:10B1D4001C2E0020182E0020202E002076FF0300B5
:10B1E4006DFB03006CFF03002DE9F0478946D4B0E2
:10B1F40090460546002800F01D8100F007FB0DF184
:10B204002C0A8D4F421B2946504614F09CFA3B6889
:10B21400980727D5894B1B68042B23DD4C46884BA4
:10B22400802C28BF80241E6813AB294605EB040C30
:10B2340018468C4503F1020340F0BC80002300F85B
:10B24400143003F1804303F588337E4AD3F8043580
:10B2540001927D4A029000927C4940F24D120520F1
:10B2640000F0ECFC002305AC00932A465346494603
:10B27400204600F0E1F90646002840F0BE8023781D
:10B28400002B00F0BA80E268B2F1807F80F0B580D4
:10B29400E27A12B1022B00F0B08094F90A30002B4C
:10B2A400C0F2AB803B6813F0020F13AD23D0634BA5
:10B2B4001B68042B1FDD4846614B8028196828BF92
:10B2C40080202B46864203F1020340F08180002354
:10B2D40005F8163003F1804303F588335C4AD3F84C
:10B2E40004350192584A009202954FF4AB725749C3
:10B2F400052000F0A3FC636913B97846FBF77AFDD7
:10B304004146204606F0F2F84946204600F072FA1B
:10B314005FFA80F94346224649460DF13500FCF7B1
:10B32400D3FCE16806462089FBF7CEFD2946208937
:10B334000BF0FCFB002860D1012003F0A7FA0028E1
:10B344005BD0A37A012B58D92378012B4FD098F8DE
:10B354000030012B03D106F0FFF800284DD03D4BFF
:10B364001B68002B4DD1A37A98F800202C60013B78
:10B37400A3724FF0FF336B60DF23EB6001239A422B
:10B38400C5F808902B7406D006F0E6F818B9EB68F7
:10B3940083F00203EB602846FFF752FE002837D102
:10B3A4004A460DF13501686914F0CDF92846FFF7D6
:10B3B400B7FE22E011F8012B4FEA121E02F00F0231
:10B3C40016F80EE003F802ECB25C03F8012C30E747
:10B3D4001AF806204FEA121C02F00F0211F80CC0F2
:10B3E40003F802CC8A5C03F8012C01366AE729468B
:10B3F40060880BF09BFB0028A9D0304654B0BDE810
:10B40400F087A27A6188208998470028ABD1F4E7B5
:10B414003B689B07F1D5094B1B68012BEDDD0E4BF7
:10B424000E4AD3F80435094900920220A72200F0FD
:10B4340005FCE2E70E26E0E71C2E0020182E002073
:10B44400202E0020F3FE03006DFB03006CFF0300BD
:10B4540002FF0300AC3B00200010014011FF030079
:10B4640008B528B1012804D07846FBF7C3FC0020B6
:10B4740008BD0320FCE730B589B0002304938DF8A0
:10B484001430036940691BBACDF815300B461446D5
:10B4940053F8072FCDF819209A88ADF81D209B7911
:10B4A4008DF81F300D466A46113004A9FFF748FC99
:10B4B400AB1D0DF10600E21D13F8011910F8014D42
:10B4C400AB4281EA040102F8011DF5D109B030BD97
:10B4D4002DE9F041D4B01D4600238DF81730ADF8A6
:10B4E4003C300E93D31D0C93EB1D10935A9B436178
:10B4F4000E4606AF11462A4604460B97FFF7BBFFDC
:10B504006B78DB09E3726B7803F07F03A372EB784B
:10B51400AA781B0243EA02432A791343E3606B7956
:10B52400A87940EA03202081FEF776F9012866D144
:10B53400E27A002AA6F1090314BF082204229342E6
:10B544005DD3E1682089FBF7A1FC8046002856D131
:10B55400E37A9DF86C01002B14BF08230423073EF3
:10B564008DF84830F61A0C9BB6B2ADF834601E4420
:10B574001196FFF775FF3B46014642462046FFF70A
:10B5840012FC63690DF1170101330AA80A93FFF74E
:10B5940008FC9DF81730002B31D0EB79287A40EA6B
:10B5A40003206080FEF738F91D4B20701B689B0751
:10B5B40025D51C4B1B68032B21DDBDF834201A4B09
:10B5C40010991D68802A28BF802213AB56181C4688
:10B5D4008E4203F1020317D1002304F8123003F161
:10B5E400804303F58833114AD3F804350192104A95
:10B5F40000920294DF220F49042000F01FFB9DF803
:10B60400170054B0BDE8F08111F8010B070900F0F0
:10B614000F00EF5D03F8027C285C03F8010CD7E708
:10B624001C2E0020182E0020202E0020B8FF03001E
:10B634006DFB0300ABFF03002DE9FF478946154668
:10B644001F469DF830A0064618B112B10BB19A42BC
:10B6540002D17846FBF7CEFBA9F10903142B2FD8AE
:10B664002878C009FDF75AFE00233061736195F80C
:10B674000080CDE9023308F07F0803AA02A94046FE
:10B684000BF042F9029BCBB1CDE9003A2A463B4686
:10B6940049463046FFF71CFF044608B1002010E07D
:10B6A400039B43B1CDE9003A2A463B46494630461E
:10B6B400FFF70EFF40B9029B002BDED1052000E00E
:10B6C400092004B0BDE8F0872046FAE7F0B50C463F
:10B6D4008FB016461F46054610B97846FBF78AFB1D
:10B6E40016B97846FBF786FB012F02D97846FBF79B
:10B6F40081FB3846FFF7B4FE01AF3B46014600220A
:10B704002846FFF750FBEB7A002B14BF08230423D1
:10B714008DF834306B69A11C0133CDE9053789B24A
:10B72400F31D0022ADF8201005A8194407930B93CC
:10B73400ADF8282009920C91FFF731FB32463146CF
:10B744002846FFF798FE0FB0F0BD38B50D46044605
:10B7540010B97846FBF74EFB15B97846FBF74AFB60
:10B764002889FEF759F8012802D07846FBF742FBF6
:10B7740095F90A30002B02DA7846FBF73BFBEB68BD
:10B78400B3F1807F02D37846FBF734FB6B6913B9BE
:10B794007846FBF72FFB2B6903F00102237803F0B3
:10B7A4007F0343EAC21323706A69127823F07F038C
:10B7B40002F07F02134323706378EA7A03F07F0375
:10B7C40043EAC213DBB26370AA7A23F07F0302F068
:10B7D4007F0213436370EB6823711A0CA2701A0A78
:10B7E400E2702B89A3711A0A62716B8823721A0A98
:10B7F400E27138BDC37A002B14BF08200420093934
:10B80400081A70470938704709307047013070478B
:10B81400436849B9027880781A441B78C31A12F82D
:10B82400010C1844C0B270475A185B5C12F8010C42
:10B83400C01AF7E738B50D46044610B97846FBF749
:10B84400D9FA2378AB4202D87846FBF7D3FA2946D3
:10B854002046FFF7DDFF40B163686278585DA37846
:10B86400013B1840A36802FB003038BD38B50C46D4
:10B87400054610B97846FBF7BDFA2B78A34202D8E7
:10B884007846FBF7B7FA21462846FFF7C1FF18B1FF
:10B894006A68135D0133135538BD10B5044610B9F9
:10B8A4007846FBF7A7FA0023194622789A4200D873
:10B8B40010BD6268D1540133F7E710B543780446EC
:10B8C40013B97846FBF796FA2378012B02D8784609
:10B8D400FBF790FAA36813B97846FBF78BFA636811
:10B8E40013B97846FBF786FAA37813B15A1E1A42A5
:10B8F40002D07846FBF77EFA2046BDE81040FFF7F9
:10B90400CCBF38B50D46044610B97846FBF772FA39
:10B914002378AB4202D87846FBF76CFA29462046D6
:10B92400BDE83840FFF774BF08B520B119B1FFF77F
:10B934005DFB002008BD0E20FCE713B50B4658B193
:10B9440051B1002401220DF107018DF80740FFF7E2
:10B95400BBFA204602B010BD0E20FBE730B50C4602
:10B964008BB00546E0B1D9B11031FFF711FB0D4B97
:10B9740003930D4B186804909B88ADF8143006AA05
:10B98400042103A8FFF76BFA0623009328460194C9
:10B9940004AB06AA1021FFF778FA00200BB030BDE3
:10B9A4000E20FBE76E6B626BCBFF030030B50D46D8
:10B9B4008BB00446C8B1C1B10D4B03930D4B18684D
:10B9C40004909B88ADF8143006AA042103A8FFF75D
:10B9D40046FA062300932046019504AB06AA1021DB
:10B9E400FFF753FA00200BB030BD0E20FBE700BF79
:10B9F4006E6B696BCBFF030030B50C4687B0054610
:10BA0400F0B1E9B104210F4B01930DEB010002AA3F
:10BA1400FFF725FA02AB184610222946FFF7BDF9B5
:10BA24009DF816301B0203F47C529DF81730134323
:10BA34006FEA43436FEA53432380002007B030BDCD
:10BA44000E20FBE7767461648369D0E9000201FB90
:10BA5400020003B11847194613F09EBE38B50546D7
:10BA64000024AB68A34202D8013BEB6038BD2146F9
:10BA74002846FFF7E9FF0134F3E7F8B5C568044643
:10BA84000F460026A368B34201D8002012E0D4E98F
:10BA94000012636902FB0511384633B1984740B977
:10BAA400A36845B1013D0136ECE713F011FE00280F
:10BAB400F6D10120F8BD5D1EF5E7C3688268013345
:10BAC400934210B4C36004BF0023C3604268C368D8
